:10F0000002F00375816F12F681E582600302F0540D
:10F01000758200758300758400758500780079001D
:10F02000E8496012E475860093A3758601F0A31881
:10F03000B8FFED1980EA7586007582007583007C43
:10F04000007D00EC4D600AE4F0A31CBCFFF51D80C0
:10F05000F212F66212F57380FEAA8274015AF5EF7D
:10F0600043EF0275EF0085EC2485EB2385EA2285CA
:10F07000E9218521828522838523F0E52422AA8245
:10F0800085252985262A85272B85282C852CEC8506
:10F090002BEB852AEA8529E974015AF5EF43EF0441
:10F0A00075EF002275CBFF75CAF775C83475985295
:10F0B00022AA82BA0A0810990280FB75990D10994C
:10F0C0000280FB8A992210980280FBAA99300009DD
:10F0D0008A82C00212F0B1D0028A822212F0C6AA3D
:10F0E00082C00212F0B1D0028A8222AA82AB83AC23
:10F0F000F08A828B838CF012F665FDFE60188E829A
:10F10000C002C003C00412F0B1D004D003D0020A80
:10F11000BA00DE0B80DB22E582FA30E60474092AAD
:10F12000FA740F5AF5822212F0DC12F117E582C44C
:10F1300054F0F50812F0DC12F117E5824208850858
:10F1400082227525FF7526FF75271F75280F75828A
:10F150000112F07E75820012F059AA82AB83ACF0E6
:10F16000FDEA5403600280EC22E52DF022E0F582F6
:10F170002275C301C082C083C0E0E4F582F583E458
:10F18000F0A3E58330E7F8D0E0D083D0822275C3C6
:10F1900001C082C083C0E090000075E10075E2000C
:10F1A00075E30075ED1175ED01E5EE30E1FBE5E489
:10F1B000F0A3E5E5F0A3E5E6F0A3E5E7F0A305E1BC
:10F1C000E5E170DF05E2E5E230E5D8D0E0D083D0BC
:10F1D000822212F18E75C80075980075CB0075CA31
:10F1E0000075C3007581070200002212F18E75C8F8
:10F1F0000075980075CB0075CA0075E8FF7595FF1E
:10F2000075C30075810702C00022C082C083C0E0C0
:10F21000C0F090000075E10075E20075E300E0F5D4
:10F22000E4F5F0A3E0F5E542F0A3E0F5E642F0A353
:10F23000E0F5E745F0A3600B43ED21E5EE20E0FBB0
:10F2400075ED0105E1E5E170D505E2E5E230E5CED9
:10F25000D2E9D0F0D0E0D083D0822212F0DC8582D7
:10F2600010743AB51002800302F36E75112E12F17C
:10F270002785820D850D0F12F127AA828A09750A4A
:10F2800000AA09EA250FF50F85090A75090012F190
:10F2900027858210E510250FF50FAA107B00EA25BF
:10F2A00009F509EB350AF50A12F12785820EE50EFC
:10F2B000250FF50F750B00C3E50B950D501D12F1D1
:10F2C0002785821074C0250B4007E50B2430F8A673
:10F2D00010E510250FF50F050B80DC12F127E582F4
:10F2E000FA250FF50FE50D24BF5003750F01E50F4B
:10F2F0007066AA0EBA00028017BA01028046BA03ED
:10F30000028036BA044B12F14212F171D2E9804DFB
:10F31000750C00C3E50C950B5043E50C2430F886C2
:10F320002D850982850A8312F16974012509F50981
:10F33000E4350AF50A050C80DA90F64E75F0801275
:10F34000F0EB801985118212F0B112F20AD2EA8034
:10F350000C75113FD2EA8005751158D2E97401B5D8
:10F360000E0302F25B85118212F0B102F25B74555A
:10F37000B51002800302F25B75E80075950075E830
:10F380000102F25BAA82AB83ACF07D007E008A8230
:10F390008B838CF012F665FF700302F418C3EF64E0
:10F3A0008094B0401174B98FF063F08095F04006FE
:10F3B000EF24D0FF80398A828B838CF012F665F8B7
:10F3C000C3648094C1401174C688F063F08095F0E6
:10F3D000400674C928FF8017C3E8648094E1403870
:10F3E00074E688F063F08095F0402D74A928FF8DB5
:10F3F0002EEEC454F0C52EC4C52E652EC52E54F075
:10F40000C52E652EF52F7800EF252EFDE8352FFE51
:10F410000ABA00010B02F38E8D828E8322E582FAF6
:10F42000C4540F90F63D93F582C00212F0B1D002A1
:10F43000740F5A90F63D93F58202F0B1AA82AB8325
:10F440008B048C82C002C00312F41DD003D0028A48
:10F450008202F41D12F18E75E8007595007A007B2A
:10F46000008B048A05ECC4540F90F65293F58F7408
:10F470000F5C90F65293F58EEDC4540F90F65293B4
:10F48000F594740F5D90F65293F5938A828B83C046
:10F4900002C00312F16DAC82D003D002ECC4540F51
:10F4A000FD90F65293F592740F5C90F65293F5919D
:10F4B00020FA5530F95230FAFD74015595FCBC0123
:10F4C000117A0053037FACE87D00EC4202ED420369
:10F4D000808F74025595FCBC02107B00ACE88C0553
:10F4E000E4FC4202ED420302F461E595540360033B
:10F4F00002F46185E82D8A828B83C002C00312F179
:10F5000069D003D00202F46120FC1F30FCFDC2E987
:10F51000C2EA0ABA00010BC374FF9A747F9B4003CE
:10F5200002F4617A007B0002F46120FB1F30FBFDD6
:10F53000C2E9C2EA1ABAFF011BC374FF9A747F9B27
:10F54000400302F4617AFF7B7F02F46130FA030228
:10F55000F46130F90302F46120FA0330F9FAC002D1
:10F56000C00312F142D2E912F20AD003D002D2EA69
:10F5700002F46175ED0075EF00C2FAC2FB30F909C3
:10F5800030FB0630FC0312F1D220FC2A758FA175E6
:10F590008E867594837593C17592C27591C230FC45
:10F5A000FD7591FF7592FF7593FF7594FF758EFF42
:10F5B000758FFF12F1EB20FB18758FBF758EBF752D
:10F5C00094BF7593BF7592BF7591BF30FBFD12F468
:10F5D0005475C3017594837593A37592A375918730
:10F5E00030F9FD75E8017595007591FF7592FF750D
:10F5F00093FF7594FF758EFF758FFF12F0A4752D24
:10F6000000907FFF12F16930980DAA99C298BA55FF
:10F61000028027C2998A99907FFF12F16DE582607E
:10F62000E6C2E9C2EA752D00907FFF12F16912F17E
:10F6300042D2E912F20AD2EA80CD02F25B303132D4
:10F640003334353637383941424344454600444522
:10F650003100C0F9A4B0999282F880908883C6A145
:10F66000868EC2002220F71430F6148883A88220E8
:10F67000F507E6A88375830022E280F7E49322E091
:10F68000227582002200000000000000000000003F
:10FFE00075C300002200000075C30100220000005C
:00000001FF
