:10F0000002F00375816012F796E582600302F05406
:10F01000758200758300758400758500780079001D
:10F02000E8496012E475860093A3758601F0A31881
:10F03000B8FFED1980EA7586007582007583007C43
:10F04000007D00EC4D600AE4F0A31CBCFFF51D80C0
:10F05000F212F77712F66680FEE582C2DE3392DFA7
:10F06000D2DEA2DFC2DE92E03392DFD2DEA2DFC2C6
:10F07000DE92E03392DFD2DEA2DFC2DE92E0339294
:10F08000DFD2DEA2DFC2DE92E03392DFD2DEA2DF89
:10F09000C2DE92E03392DFD2DEA2DFC2DE92E03344
:10F0A00092DFD2DEA2DFC2DE92E03392DFD2DEA2B6
:10F0B000DFC2DE92E0F5822275820022C2DD758217
:10F0C0000512F05975825512F059E58220E0F5D20B
:10F0D000DD2275CBFF75CAF775C83475985222AA20
:10F0E00082BA0A0810990280FB75990D1099028066
:10F0F000FB8A992210980280FBAA993000098A8223
:10F10000C00212F0DFD0028A822212F0F4AA82C07A
:10F110000212F0DFD0028A8222AA82AB83ACF08A8C
:10F12000828B838CF012F77AFDFE60188E82C0020B
:10F13000C003C00412F0DFD004D003D0020ABA002A
:10F14000DE0B80DB22E582FA30E60474092AFA74C9
:10F150000F5AF5822212F10A12F145E582C454F0E9
:10F16000F50812F10A12F145E5824208850882226B
:10F17000AA82AB83C2DD758203C002C00312F059BC
:10F1800075823212F059D0038B048C82C00312F0C6
:10F1900059D003D0028A8212F05975825512F05963
:10F1A000D2DD22C2DD75820612F059D2DDC2DD75D4
:10F1B00082D812F05975823212F05975820012F01D
:10F1C0005975820012F059D2DD02F0BCE517F02229
:10F1D000E0F58222AA82AB83C2DD758206C002C03E
:10F1E0000312F059D2DDC2DD75820212F059758228
:10F1F0003212F059D0038B048C82C00312F059D024
:10F2000003D0028A8212F05985098212F059D2DDA8
:10F2100002F0BCAA82AB83C2DD758206C002C003C5
:10F2200012F059D2DDC2DD75820212F059758232B8
:10F2300012F059D0038B048C82C00312F059D00312
:10F24000D0028A8212F0597A00C3EA950D501FEA63
:10F25000250AFBE4350BFCAD0C8B828C838DF01200
:10F26000F77AF582C00212F059D0020A80DBD2DDB3
:10F2700002F0BC75C301C2DD75820312F0597582BC
:10F280003212F05975820012F05975820012F0594D
:10F29000900000C2DEA2DFD2DE33C2DEA2DFD2DE09
:10F2A00033C2DEA2DFD2DE33C2DEA2DFD2DE33C261
:10F2B000DEA2DFD2DE33C2DEA2DFD2DE33C2DEA2C6
:10F2C000DFD2DE33C2DEA2DFD2DE33F0A3E583304D
:10F2D000E7C1D2DD2275C80075980075CB0075CAEC
:10F2E0000075C3007581070200002275C80075987B
:10F2F0000075CB0075CA0075E8FF7595FF75C300F2
:10F3000075810702C0002212F10A858215743AB590
:10F310001502800302F42F75162E12F15585821204
:10F3200085121412F155AA828A0E750F00AA0EEAF0
:10F330002514F514850E0F750E0012F155858215F2
:10F34000E5152514F514AA157B00EA250EF50EEB3C
:10F35000350FF50F12F155858213E5132514F514B9
:10F36000751000C3E5109512501D12F155858215D8
:10F3700074C025104007E5102421F8A615E51525D1
:10F3800014F514051080DC12F155E582FA2514F508
:10F3900014E51224BF5003751401E514600302F450
:10F3A00021AA13BA0002803ABA01028069BA0302A4
:10F3B0008059BA0465E4F50EF50FC3E50E94FFE538
:10F3C0000F947F50197517FF850E82850F8312F1F8
:10F3D000CC7401250EF50EE4350FF50F80DCD2E973
:10F3E0008044751100C3E5119510503AE5112421B0
:10F3F000F88617850E82850F8312F1CC7401250ED5
:10F40000F50EE4350FF50F051180DA90F76375F00E
:10F410008012F1198010D2EA800C75163FD2EA8072
:10F4200005751658D2E985168212F0DF02F30774CB
:10F4300055B51502800302F30775E8007595007550
:10F44000E80102F307AA82AB83ACF07D007E008A5C
:10F45000828B838CF012F77AFF700302F4D9C3EF2A
:10F46000648094B0401174B98FF063F08095F040DF
:10F4700006EF24D0FF80398A828B838CF012F77AD2
:10F48000F8C3648094C1401174C688F063F080951D
:10F49000F0400674C928FF8017C3E8648094E140F7
:10F4A0003874E688F063F08095F0402D74A928FF49
:10F4B0008D18EEC454F0C518C4C5186518C5185485
:10F4C000F0C5186518F5197800EF2518FDE835190D
:10F4D000FE0ABA00010B02F44F8D828E8322E58270
:10F4E000FAC4540F90F75293F582C00212F0DFD0A5
:10F4F00002740F5A90F75293F58202F0DFAA82ABA2
:10F50000838B048C82C002C00312F4DED003D002CD
:10F510008A8202F4DE75E8007595007A007B008B24
:10F52000048A05ECC4540F90F76793F58F740F5C51
:10F5300090F76793F58EEDC4540F90F76793F594A9
:10F54000740F5D90F76793F5938A828B83C002C036
:10F550000312F1D0AC82D003D002ECC4540FFD9062
:10F56000F76793F592740F5C90F76793F59120F924
:10F570005630F85330F9FD74015595FCBC01127AF0
:10F580000053037FACE87D00EC4202ED420302F53C
:10F590001F74025595FCBC02107B00ACE88C05E49E
:10F5A000FC4202ED420302F51FE59554036003029D
:10F5B000F51F85E8178A828B83C002C00312F1CC45
:10F5C000D003D00202F51F20FB1F30FBFDC2E9C2B1
:10F5D000EA0ABA00010BC374FF9A747F9B400302CE
:10F5E000F51F7A007B0002F51F20FA1F30FAFDC2DA
:10F5F000E9C2EA1ABAFF011BC374FF9A747F9B40E9
:10F600000302F51F7AFF7B7F02F51F30F90302F535
:10F610001F30F80302F51F20F90330F8FAC002C0CA
:10F620000312F1A3D003D002D2E97C007D007480E4
:10F630002D402E8C068D078E0A8F0B750C00750DD4
:10F64000408C828D83C002C003C004C00512F21337
:10F65000D005D004D003D00274402CFCE43DFD80E2
:10F66000CDD2EA02F51F30F80930FA0630FB03125A
:10F67000F2D520FB2A758FA1758E867594837593BC
:10F68000C17592C27591C230FBFD7591FF7592FFF5
:10F690007593FF7594FF758EFF758FFF12F2EB2047
:10F6A000FA18758FBF758EBF7594BF7593BF75922D
:10F6B000BF7591BF30FAFD12F51575C301759483BE
:10F6C0007593A37592A375918730F8FD75E8017560
:10F6D00095007591FF7592FF7593FF7594FF758E78
:10F6E000FF758FFF12F0D2751700907FFF12F1CCDB
:10F6F00030980DAA99C298BA55028053C2998A9936
:10F70000907FFF12F1D0E58260E6C2E9C2EA751788
:10F7100000907FFF12F1CC12F1A3D2E97A007B00B6
:10F7200074802B40268A048B058C0A8D0B750C0087
:10F73000750D408A828B83C002C00312F213D0037E
:10F74000D00274402AFAE43BFB80D5D2EA80A102C1
:10F75000F307303132333435363738394142434498
:10F7600045460044453100C0F9A4B0999282F88022
:10F77000908883C6A1868EC2002220F71430F6142A
:10F780008883A88220F507E6A88375830022E2809B
:10F79000F7E49322E02275820022000000000000BE
:10FFE00075C300002200000075C30100220000005C
:00000001FF
