:0300000002088172
:0100030032CA
:03000B000203E30A
:0100130032BA
:01001B0032B2
:0100230032AA
:03002B0002040DBF
:10002E000D0A48656C6C6F2C20576F726C64210D35
:02003E000A00B6
:10004000C00078BE00000000D8FAD00022C000C076
:1000500001793278DFD8FED9FADAF6D001D0002261
:10006000D291120040C29112004022A2E79281A2D6
:10007000E69283A2E59285A2E49287120060A2E351
:100080009281A2E29283A2E19285A2E0928712007D
:100090006022D29702006BC29702006BC291C0022D
:1000A0007A2812004DD00274331200977433120074
:1000B0009774321200977428120097740C120097EC
:1000C0007401120097C0027A0212004DD00222E49D
:1000D000936006120092A380F622444044800200FE
:1000E00097C0E0E8C4540F4430120092E8540F4423
:0700F00030120092D0E02263
:1000F700C0E0C0D0C000C001C002E4F54BF54CF52C
:100107004DF54EF54F7A20E546A2E779047843E6A8
:1001170033F608D9FA7905784BE636D4F608D9F9D3
:10012700DAE5D002D001D000D0D0D0E022C0E0C0C4
:10013700D0C000C001C002E4F54BF54CF54DF54EBB
:10014700F54F7A20E546A2E779047843E633F608C7
:10015700D9FA7905784BC0D0E6243320E70224D0BA
:1001670020E30224FDD0D033F608D9EADAD6D0024C
:10017700D001D000D0D0D0E022C0E0C0D0C000C0B5
:1001870001C0027A207905C3784FE613C0D030E763
:100197000224D030E30224FDF618D0D0D9EC79043C
:1001A7007846E613F618D9FADADBD002D001D00088
:1001B700D0D0D0E022C0E0C0D0E5432547F543E5E5
:1001C700443548F544E5453549F545E546354AF5AD
:1001D70046D0D0D0E022C0E0C0D0C3E5439547F574
:1001E70043E5449548F544E5459549F545E5469584
:1001F7004AF546D0D0D0E022C0E0C0D0C3E5439551
:1002070047E5449548E5459549E546954A9201D025
:10021700D0D0E022C0E0C0D0C3E5479543E548957C
:1002270044E5499545E54A95469201D0D0D0E0226C
:10023700C0E0C0D0C201C3E54795437014E54895B7
:1002470044700EE54995457008E54A95467002D217
:1002570001D0D0D0E02212023720010302021B2274
:100267001202372001030201FF22C0E0C0F0C0D014
:10027700C000C001C002C003E5438547F0A4F8A948
:10028700F0E5448547F0A429F9E435F0FAE543851C
:1002970048F0A429F9E5F03AFAE433FBE545854748
:1002A700F0A42AFAE5F03BFBE5448548F0A42AFAD6
:1002B700E5F03BFBE5438549F0A42AFAE5F03BFB73
:1002C700E5468547F0A42BFBE5458548F0A42BFBC5
:1002D700E5448549F0A42BFBE543854AF0A42BFBB5
:1002E7008B468A4589448843D003D002D001D00089
:1002F700D0D0D0F0D0E022C0E0C0D0C000C001C054
:1003070002C003C0047C20E4F8F9FAFBC3E54333D9
:10031700F543E54433F544E54533F545E54633F51F
:1003270046E833F8E933F9EA33FAEB33FBC3E895E8
:1003370047E99548EA9549EB954A4013E89547F808
:10034700E99548F9EA9549FAEB954AFB434301DCFD
:10035700BBD004D003D002D001D000D0D0D0E0224F
:1003670054656D70433D20787820007343202073D7
:1003770054202072432020725400005331205052E1
:100387004548454154202000533220534F414B20CC
:1003970020202020005333205245464C4F57202021
:1003A7002000533420484F4C442020202020005365
:1003B7003520434F4F4C2020202020005336204526
:1003C70052524F522020202000E58954F04401F575
:1003D70089758CFD758A5AD2A9C28C22758CFD75D8
:1003E7008A5AB2953275C80075CDF575CC2775CB8D
:1003F700F575CA27E4F530F531F532F533F541F5F2
:1004070042D2ADD2CA22C2CFC0E0C0D0C0F0C082B3
:10041700C083053CE53CB46403753C00C3E53C95EB
:100427003D4004C2B78002D2B70530E530700205FF
:10043700310532E53270020533E532B4E82DE53394
:10044700B40328053FE4F532F533E5376016E54296
:10045700B40307E541B4E70280110541E541700B9C
:1004670005428007E4F541F542F53FE530B4F41461
:10047700E531B4010FE4F530F531D200B2E8E535E6
:1004870060021535E5356011E531700DE530B4646E
:100497000280065004D28C8004C28CC295E53420B9
:1004A700E8072401D4F53480052499D4F534D083A2
:1004B700D082D0F0D0D0D0E032C0F9A4B0999282E7
:1004C700F880908883C6A1868EC0E0753D00C2B7CC
:1004D700753700E4F53FF541F542F535C28CC29515
:1004E700C202D0E022C0E0C0F0C0D0C082C08353B7
:1004F700D0E7C000C001C003C004C007E53760559E
:10050700AC41AB42EBC39403400E7008ECC394E7D5
:10051700500280047B037CE77900EB7006ECC39400
:1005270064400CECC39464FCEB9400FB0980EBEC97
:1005370075F00A84F8AFF0C0E0740E141200DCD036
:10054700E0E92430120092E82430120092EF2430C0
:10055700120092801EC0E0740E141200DCD0E0740A
:1005670020120092742012009274201200927420BC
:10057700120092D007D004D003D001D000D083D08E
:1005870082D0D0D0F0D0E022C0E0C0D0C082C083FB
:10059700C000E537B540028028F540C0E07401147B
:1005A7001200DCD0E0780D7420120092D8F9C0E078
:1005B7007401141200DAD0E078107420120092D877
:1005C700F9D000D083D082D0D0D0E022C0E0C08262
:1005D700C083E537700302066FC0E0740114120090
:1005E700DCD0E0B40114C083C082C0E09003821263
:1005F70000CFD0E0D082D083806EB40214C083C015
:1006070082C0E090038F1200CFD0E0D082D08380E9
:1006170057B40314C083C082C0E090039C1200CF7C
:10062700D0E0D082D0838040B40414C083C082C09D
:10063700E09003A91200CFD0E0D082D0838029B404
:100647000514C083C082C0E09003B61200CFD0E08B
:10065700D082D0838012C083C082C0E09003C312CF
:1006670000CFD0E0D082D083D083D082D0E0C0E06A
:10067700C0F0C0D0C082C083E5377003020764C0F2
:10068700E07401141200DAD0E0B40135745412009A
:1006970092743D12009274351200927430120092D7
:1006A70074431200927420120092747412009274B0
:1006B7003D120092743612009274301200920207B3
:1006C70064B402267454120092743D120092E53805
:1006D700120C6E74201200927474120092743D1200
:1006E7000092E539120C6E020764B40311745412B8
:1006F7000092743D120092E53A120C6E805FB404CA
:10070700117474120092743D120092E53B120C6E44
:10071700804BB405207454120092743D12009274F9
:1007270030120092743612009274301200927443A1
:10073700120092802874431200927452120092742D
:100747004912009274541200927449120092744331
:100757001200927441120092744C120092D083D00E
:1007670082D0D0D0F0D0E022E537B4003E753D000E
:10077700E5607013120EB5E55EB561028009855E0E
:1007870061755F00756000120E5D500BE55F120E1C
:10079700CB755F00756000120EED20EA0B753F0008
:1007A700C202753701120A89020909B4013D753D74
:1007B7006420EF35E53EC394324002D202E53FC3E1
:1007C700943C401220020F753D00753F00753706B7
:1007D700120A92020909E538C3953E5009753F0090
:1007E700753702120A89020909806AB4021920EFD3
:1007F70064753D14E539C3953F5009753F0075375A
:1008070003120A89020909B4031920EF48753D64E8
:10081700E53AC3953E5009753F00753704120A89BA
:10082700020909B4041920EF2C753D14E53BC39563
:100837003F5009753F00753705120A89020909B447
:100847000521753D00E53EC3943C5006120A9B7591
:1008570037000209098000753705753D00120A92B5
:10086700020909B406028003020771753D0020EAF8
:100877000302090975370002090975817075370088
:100887007540001203D01203EC120A4D759AAA752F
:100897009BA2759CFF759DFF12102875680075E86F
:1008A70000759500D2AF12009CC0E07401141200CD
:1008B700DCD0E0C083C082C0E09003671200CFD0D5
:1008C700E0D082D083D200753400755498755508EE
:1008D70075560075570075A180C0027A3212004D17
:1008E700D00275389675393C753ADC753B2D120C7C
:1008F700B3120EB5855E61755F00756000E4F54162
:10090700F54220F812C0027A3212004DD00220F8C8
:100917000630F8FD1204D020F91DC0027A32120009
:100927004DD00220F91130F9FDC2CAE4F530F53196
:10093700F534D2CA020957300016C0E07407141202
:1009470000DCD0E01209DC1210B4120C4A12104875
:10095700C200120B30120B3D120B8D12058F1205C0
:10096700D31204EC12097412120002076FC0E0C020
:10097700F0C0D0C082C08353D0E7E5376033E53F8E
:10098700C39464E53F75F06484FAE5F075F00A8472
:10099700F9A8F0C0E0740E141200DAD0E0EA2430AF
:1009A700120092E92430120092E82430120092805B
:1009B70019C0E0740E141200DAD0E074201200920D
:1009C70074201200927420120092D083D082D0D06B
:1009D700D0F0D0E022C0E0C0F0C082C08385584389
:1009E700855944855A45855B467547647548007542
:1009F7004900754A001202FEAC43AB447A00EB7023
:100A070006ECC39464400CECC39464FCEB9400FBC9
:100A17000A80EBEC75F00A84F9A8F09004C0E8931B
:100A2700F591EA7008E970057592FF8004E993F57E
:100A370092EA70057593FF8004EA93F593D083D00B
:100A470082D0F0D0E022C28E53890F43892043879A
:100A570080758DFD758BFDD28E759852D299223097
:100A670099FDC299F59922E4936006120A66A3805C
:100A7700F622E54345444545454670217430120A40
:100A87006622753501E4F530F5312275350AE4F54E
:100A970030F53122753505E4F530F531227F0075E3
:100AA700470A754800754900754A001202FEE54776
:100AB7002430C0E00FE54345444545454670E0D046
:100AC700E0120A66DFF922855843855944855A455D
:100AD700855B46754764754800754900754A00127D
:100AE70002FE85433EAC43AB447A00EB7006ECC391
:100AF7009464400CECC39464FCEB9400FB0A80EB19
:100B0700EA2430120A66EC75F00A842430120A6669
:100B1700E5F02430120A66740D120A66740A120A86
:100B27006622F5A1A9A3A8A2227400120B29120B11
:100B370029885C895D22E55C455D700D75500075FF
:100B47005100755200755300227401120B29120BC4
:100B570029884389447545007546007547007548DF
:100B670010754900754A00120271855C47855D481A
:100B7700754900754A001202FE8543508544518528
:100B8700455285465322E4F558F559F55AF55B7BEE
:100B97000A120B3D855843855944855A45855B465E
:100BA700E550F547E551F548E552F549E553F54A6E
:100BB7001201BC85435885445985455A85465BDBF8
:100BC700D0855843855944855A45855B4675470AFC
:100BD700754800754900754A001202FE7547E875A9
:100BE7004803754900754A00120271754732754806
:100BF70001754900754A001202FE75476475480081
:100C0700754900754A0012027175472975480075C4
:100C17004900754A001202FEE554F547E555F548C7
:100C2700E556F549E557F54A1201BCE543F558E5A0
:100C370044F559E545F55AE546F55B2253544154C9
:100C4700453D00C0E0C082C083900C43120A6EE5A8
:100C5700372430120A66740D120A66740A120A667D
:100C6700D083D082D0E022C0E0C0F0C0D075F0645D
:100C7700842430120092E5F075F00A8424301200C3
:100C870092E5F02430120092D0D0D0F0D0E022C00C
:100C9700F9A4B0999282F880908883C6A1868E784D
:100CA7000F794A7AFADAFED9FAD8F622439B5443E7
:100CB7009C01539CAB539DFE2220F90B120CA620DE
:100CC700F90530F9FDC322C292C294C296C2A0A20E
:100CD700A282A482A682B05002C322120CA6A2A2AC
:100CE70082A482A682B05002C322D292D294D29614
:100CF700D2A0C29220A2077F0130A2FDD32220A456
:100D0700077F0230A4FDD32220A6077F0330A6FD6C
:100D1700D32220B0077F0A30B0FDD322D292C294EB
:100D270020A2077F0430A2FDD32220A4077F05302D
:100D3700A4FDD32220A6077F0630A6FDD32220B02C
:100D4700077F0B30B0FDD322D294C29620A2077F33
:100D57000730A2FDD32220A4077F0830A4FDD322A9
:100D670020A6077F0930A6FDD32220B0077F0C30CD
:100D7700B0FDD322D296C2A020A2077F0E30A2FDDB
:100D8700D32220A4077F0030A4FDD32220A6077F0B
:100D97000F30A6FDD32220B0077F0D30B0FDD32240
:100DA700D2A0C322C29220A2077F0A30A2FDD3227B
:100DB70020A4077F0B30A4FDD32220A6077F0C3089
:100DC700A6FDD32220B0077F0D30B0FDD322D292EB
:100DD700C29420A2077F0330A2FDD32220A4077F5D
:100DE7000630A4FDD32220A6077F0930A6FDD32213
:100DF70020B0077F0F30B0FDD322D294C29620A235
:100E0700077F0230A2FDD32220A4077F0530A4FD6F
:100E1700D32220A6077F0830A6FDD32220B0077F64
:100E27000030B0FDD322D296C2A020A2077F0130A6
:100E3700A2FDD32220A4077F0430A4FDD32220A63D
:100E4700077F0730A6FDD32220B0077F0E30B0FD05
:100E5700D322D2A0C322C3C0E0C0F0C0D0120CC0BE
:100E6700503CEFB40D0CE560603CD0D0D3D0F0D04F
:100E7700E022EFC3940A502EE560B403028027E511
:100E87005F255FF5F0E55F23232325F02FF55F0549
:100E970060E560B40310D0D0D3D0F0D0E022D0D03A
:100EA700C3D0F0D0E022D0D0C3D0F0D0E022C0E051
:100EB700E420E8028002440120E90280024402F5AE
:100EC7005ED0E022C0E0E55EB40005855F3A80139E
:100ED700B40105855F3B800BB40205855F3880034D
:100EE700855F39D0E022C0E0C082C083C0E07401D2
:100EF700141200DCD0E0C083C082C0E090037212FD
:100F070000CFD0E0D082D083C0E07401141200DAA1
:100F1700D0E0C083C082C0E09003811200CFD0E050
:100F2700D082D083C0E07401141200DAD0E0E53A31
:100F3700120C6EC0E07405141200DAD0E0E53B1223
:100F47000C6EC0E07409141200DAD0E0E538120C18
:100F57006EC0E0740D141200DAD0E0E539120C6EA1
:100F6700D083D082D0E022010002000400080010E4
:100F7700002000400080000001000200040008007B
:100F870010002000400080C0E0C082C083120CC067
:100F97005016EFC394105010900F6EEF2393F5E89F
:100FA700EF230493F5958000D083D082D0E0227E92
:100FB700087F00A2E792FDC2FE23D2FEA2FDC0E099
:100FC700EF33FFD0E0DEECEF22D2FEC2FFE8543F62
:100FD700120FB6E9120FB6D2FF22D2FEC2FF44802B
:100FE700120FB67400120FB6D2FF22D2FEC2FF74E0
:100FF700F2120FB67400120FB6F5627400120FB634
:10100700F5637400120FB6F5647400120FB6F56538
:101017007400120FB6F5667400120FB6F567D2FFAB
:101027002278317908120FD0782D7908120FD02243
:10103700EB20E70122EAF4FAEBF4FB0AEA70010B72
:1010470022C0E0C0D053D0E7C0F0C082C083C00246
:10105700C003C006C007E5376040120FF2AA62ABB3
:1010670063121037EBC394004008701DEAC394C0A5
:101077005017AA64AB65121037EBC39400401B707E
:1010870008EAC394C050028011753D00C2B7753F8E
:1010970000753706756801120A92D007D006D0038B
:1010A700D002D083D082D0F0D0D0D0E022C0E0C030
:1010B700F0C082C083855843855944855A45855B6E
:1010C70046754764754800754900754A001202FE67
:1010D70085433EE53EFC7B007A00EB7006ECC3944B
:1010E70064400CECC39464FCEB9400FB0A80EBEACD
:1010F7002430120A66EC75F00A842430120A66E579
:10110700F02430120A667420120A66E538FC7B0068
:101117007A00EB7006ECC39464400CECC39464FC57
:10112700EB9400FB0A80EBEA2430120A66EC75F0B8
:101137000A842430120A66E5F02430120A66742005
:10114700120A66E539FC7B007A00EB7006ECC39463
:1011570064400CECC39464FCEB9400FB0A80EBEA5C
:101167002430120A66EC75F00A842430120A66E508
:10117700F02430120A667420120A66E53AFC7B00F6
:101187007A00EB7006ECC39464400CECC39464FCE7
:10119700EB9400FB0A80EBEA2430120A66EC75F048
:1011A7000A842430120A66E5F02430120A66742095
:1011B700120A66E53BFC7B007A00EB7006ECC394F1
:1011C70064400CECC39464FCEB9400FB0A80EBEAEC
:1011D7002430120A66EC75F00A842430120A66E598
:1011E700F02430120A66740D120A66740A120A662F
:1011F700D083D082D0F0D0E022C0E0C0F0C0D030A1
:10120700982EE599C298F5F0E5F05401600D753D0B
:1012170000C2B775370575350A8015E5F0540260C9
:101227000FE537700B753F00C202753701120A8947
:07123700D0D0D0F0D0E0227E
:00000001FF
