:03000000020548AE
:0100030032CA
:03000B000203A449
:0100130032BA
:01001B0032B2
:0100230032AA
:03002B000203C607
:10002E000D0A48656C6C6F2C20576F726C64210D35
:02003E000A00B6
:10004000C00078BE00000000D8FAD00022C000C076
:1000500001793278DFD8FED9FADAF6D001D0002261
:10006000D291120040C29112004022A2E79281A2D6
:10007000E69283A2E59285A2E49287120060A2E351
:100080009281A2E29283A2E19285A2E0928712007D
:100090006022D29702006BC29702006BC291C0022D
:1000A0007A2812004DD00274331200977433120074
:1000B0009774321200977428120097740C120097EC
:1000C0007401120097C0027A0212004DD00222E49D
:1000D000936006120092A380F622444044800200FE
:1000E00097C0E0E8C4540F4430120092E8540F4423
:0700F00030120092D0E02263
:1000F700C0E0C0D0C000C001C002E4F548F549F532
:100107004AF54BF54C7A20E543A2E779047840E6B7
:1001170033F608D9FA79057848E636D4F608D9F9D6
:10012700DAE5D002D001D000D0D0D0E022C0E0C0C4
:10013700D0C000C001C002E4F548F549F54AF54BC7
:10014700F54C7A20E543A2E779047840E633F608D0
:10015700D9FA79057848C0D0E6243320E70224D0BD
:1001670020E30224FDD0D033F608D9EADAD6D0024C
:10017700D001D000D0D0D0E022C0E0C0D0C000C0B5
:1001870001C0027A207905C3784CE613C0D030E766
:100197000224D030E30224FDF618D0D0D9EC79043C
:1001A7007843E613F618D9FADADBD002D001D0008B
:1001B700D0D0D0E022C0E0C0D0E5402544F540E5EE
:1001C700413545F541E5423546F542E5433547F5C5
:1001D70043D0D0D0E022C0E0C0D0C3E5409544F57D
:1001E70040E5419545F541E5429546F542E543959C
:1001F70047F543D0D0D0E022C0E0C0D0C3E540955A
:1002070044E5419545E5429546E54395479201D03A
:10021700D0D0E022C0E0C0D0C3E5449540E5459585
:1002270041E5469542E54795439201D0D0D0E0227B
:10023700C0E0C0D0C201C3E54495407014E54595C0
:1002470041700EE54695427008E54795437002D226
:1002570001D0D0D0E02212023720010302021B2274
:100267001202372001030201FF22C0E0C0F0C0D014
:10027700C000C001C002C003E5408544F0A4F8A94E
:10028700F0E5418544F0A429F9E435F0FAE5408525
:1002970045F0A429F9E5F03AFAE433FBE542854451
:1002A700F0A42AFAE5F03BFBE5418545F0A42AFADC
:1002B700E5F03BFBE5408546F0A42AFAE5F03BFB79
:1002C700E5438544F0A42BFBE5428545F0A42BFBD1
:1002D700E5418546F0A42BFBE5408547F0A42BFBC1
:1002E7008B438A4289418840D003D002D001D00095
:1002F700D0D0D0F0D0E022C0E0C0D0C000C001C054
:1003070002C003C0047C20E4F8F9FAFBC3E54033DC
:10031700F540E54133F541E54233F542E54333F531
:1003270043E833F8E933F9EA33FAEB33FBC3E895EB
:1003370044E99545EA9546EB95474013E89544F817
:10034700E99545F9EA9546FAEB9547FB434001DC09
:10035700BBD004D003D002D001D000D0D0D0E0224F
:1003670054656D70433D20787820007254202072C8
:10037700432020735420207343002D2D2D202D2D35
:100387002D202D2D2D202D2D2D00E58954F04401F4
:10039700F589758CFD758A5AD2A9C28C22758CFD98
:1003A700758A5AB2953275C80075CDF575CC277523
:1003B700CBF575CA27E4F530F531D2ADD2CA22C2E2
:1003C700CFC0E0C0D0053CE53CB46403753C00C336
:1003D700E53C953D4004C2B78002D2B70530E53011
:1003E700700205310532E53270020533E532B4E8B3
:1003F7000CE533B40307053FE4F532F533E530B4D4
:10040700F414E531B4010FE4F530F531D200B2E868
:10041700E53560021535E5356011E531700DE530DC
:10042700B4640280065004D28C8004C28CC295E565
:100437003420E8072401D4F53480052499D4F53411
:10044700D0D0D0E032C0F9A4B0999282F8809088D9
:1004570083C6A1868EE537B4003A753D00120AC6F9
:10046700E557B55A02800985575A755800755900DE
:10047700120A8E500BE558120ADC755800755900A0
:10048700120AFE20EA0B1206CE753F00C20275372C
:10049700010205D1B40135753D64E53EC394324090
:1004A70002D202E53FC3943C400F20020C753D0089
:1004B7007537061206D20205D1E538C3953E5009B5
:1004C700753F007537021206CE0205D1B4021675C4
:1004D7003D14E539C3953F5009753F007537031241
:1004E70006CE0205D1B40316753D64E53AC3953EC1
:1004F7005009753F007537041206CE0205D1B404C2
:1005070013753D14E53BC3953F5006753705120635
:10051700CE0205D1B40513753D00E53EC3943C50AA
:10052700061206D67537000205D1B406028003020B
:10053700045E753D0020EA030205D1753700020508
:10054700D17581617537001203911203AD120692BE
:10055700759AAA759BA2759CFF759DFF75E8007536
:100567009500D2AF12009CC0E07401141200DCD0D9
:10057700E0C083C082C0E09003671200CFD0E0D014
:1005870082D083D200753400754D98754E08754F2B
:100597000075500075A180C0027A3212004DD0025A
:1005A70075389675393C753ADC753B2D755B00756A
:1005B7005C00755D00755E00755F001208E1120A48
:1005C700C685575A75580075590030E9063000033B
:1005D7001206CE20F91DC0027A3212004DD0022039
:1005E700F91130F9FDC2CAE4F530F531F534D2CA54
:1005F7000205FD3000FDC2001207681207721207DC
:10060700BFC0E07407141200DCD0E0120621120705
:100617000412083612088202045CC0E0C0F0C082EF
:10062700C083855140855241855342855443754463
:10063700647545007546007547001202FEAC40AB75
:10064700417A00EB7006ECC39464400CECC39464ED
:10065700FCEB9400FB0A80EBEC75F00A84F9A8F038
:1006670090044CE893F591EA7008E970057592FFDC
:100677008004E993F592EA70057593FF8004EA9385
:10068700F593D083D082D0F0D0E022C28E53890F69
:10069700438920438780758DFD758BFDD28E7598B4
:1006A70052D299223099FDC299F59922E4936006B6
:1006B7001206ABA380F622E540454145424543700B
:1006C7001274301206AB227535012275350A227570
:1006D7003505227F0075440A754500754600754744
:1006E700001202FEE5442430C0E00FE540454145D5
:1006F70042454370E0D0E01206ABDFF92285514056
:100707008552418553428554437544647545007548
:1007170046007547001202FE85403EE55FAC40ABE0
:10072700417A00EB7006ECC39464400CECC394640C
:10073700FCEB9400FB0A80EBEA24301206ABEC7565
:10074700F00A8424301206ABE5F024301206AB74AD
:100757000D1206AB740A1206AB22F5A1A9A3A8A233
:100767002274001207618855895622E5554556704F
:100777000D754900754A00754B00754C00227401D0
:100787001207618840894175420075430075440727
:1007970075451075460075470012027185554485E9
:1007A70056457546007547001202FE85404985414A
:1007B7004A85424B85434C22E549F540E54AF541D8
:1007C700E54BF542E54CF5437544E8754503754639
:1007D7000075470012027175442C75450175460076
:1007E7007547001202FE754464754500754600752D
:1007F7004700120271754429754500754600754713
:10080700001202FEE54DF544E54EF545E54FF54688
:10081700E550F5471201BCE540F551E541F552E5D4
:1008270042F553E543F5542253544154453D00C026
:10083700E0C082C08390082F1206B3E53724301238
:1008470006AB740D1206AB740A1206ABD083D082C6
:10085700D0E022C0E0C0F0C0D075F064842430122C
:100867000092E5F075F00A842430120092E5F02436
:1008770030120092D0D0D0F0D0E022C0E0C0D0E556
:100887005EB4FF028032E55B253EF55BE55C340034
:10089700F55CE55D3400F55D055E855B40855C4193
:1008A700855D42754300855E447545007546007554
:1008B70047001202FE85405FD0D0D0E022C0F9A4E5
:1008C700B0999282F880908883C6A1868E780F7936
:1008D7004A7AFADAFED9FAD8F622439B54439C01A6
:1008E700539CAB539DFE2220F90B1208D420F90527
:1008F70030F9FDC322C292C294C296C2A0A2A282BC
:10090700A482A682B05002C3221208D4A2A282A453
:1009170082A682B05002C322D292D294D296D2A09B
:1009270030E800C29220A2077F0130A2FDD3222027
:10093700A4077F0230A4FDD32220A6077F0330A699
:10094700FDD32220B0077F0A30B0FDD322D292C256
:100957009420A2077F0430A2FDD32220A4077F059D
:1009670030A4FDD32220A6077F0630A6FDD3222080
:10097700B0077F0B30B0FDD322D294C29620A207D6
:100987007F0730A2FDD32220A4077F0830A4FDD320
:100997002220A6077F0930A6FDD32220B0077F0CAF
:1009A70030B0FDD322D296C2A020A2077F0E30A27C
:1009B700FDD32220A4077F0030A4FDD32220A60761
:1009C7007F0F30A6FDD32220B0077F0D30B0FDD3B7
:1009D70022D2A0C322C29220A2077F0A30A2FDD34F
:1009E7002220A4077F0B30A4FDD32220A6077F0C6B
:1009F70030A6FDD32220B0077F0D30B0FDD322D221
:100A070092C29420A2077F0330A2FDD32220A4071D
:100A17007F0630A4FDD32220A6077F0930A6FDD389
:100A27002220B0077F0F30B0FDD322D294C2962088
:100A3700A2077F0230A2FDD32220A4077F0530A49E
:100A4700FDD32220A6077F0830A6FDD32220B007BA
:100A57007F0030B0FDD322D296C2A020A2077F012B
:100A670030A2FDD32220A4077F0430A4FDD3222087
:100A7700A6077F0730A6FDD32220B0077F0E30B030
:100A8700FDD322D2A0C322C3C0E0C0F0C0D0120859
:100A9700EE5025EFC3940A501FE559B4030280189E
:100AA700E5582558F5F0E55823232325F02FF55869
:100AB7000559E559B40301D3D0D0D0F0D0E022C016
:100AC700E0E420E8028002440120E90280024402B7
:100AD700F557D0E022C0E0E557B4000585583A80C5
:100AE70013B4010585583B800BB40205855838803F
:100AF70003855839D0E022C0E0C082C083C0E074CB
:100B070001141200DCD0E0C083C082C0E090037201
:100B17001200CFD0E0D082D083C0E074011412005D
:100B2700DAD0E0C083C082C0E09003811200CFD04A
:100B3700E0D082D083C0E07401141200DAD0E0E57F
:100B47003A12085AC0E07405141200DAD0E0E53B07
:100B570012085AC0E07409141200DAD0E0E538121E
:100B6700085AC0E0740D141200DAD0E0E539120813
:080B77005AD083D082D0E022A5
:00000001FF
