:0300000002041FD8
:0100030032CA
:03000B0002038C61
:0100130032BA
:01001B0032B2
:0100230032AA
:03002B000203AE1F
:10002E000D0A48656C6C6F2C20576F726C64210D35
:02003E000A00B6
:10004000C00078BE00000000D8FAD00022C000C076
:1000500001793278DFD8FED9FADAF6D001D0002261
:10006000D291120040C29112004022A2E79281A2D6
:10007000E69283A2E59285A2E49287120060A2E351
:100080009281A2E29283A2E19285A2E0928712007D
:100090006022D29702006BC29702006BC291C0022D
:1000A0007A2812004DD00274331200977433120074
:1000B0009774321200977428120097740C120097EC
:1000C0007401120097C0027A0212004DD00222E49D
:1000D000936006120092A380F622444044800200FE
:1000E00097C0E0E8C4540F4430120092E8540F4423
:0700F00030120092D0E02263
:1000F700C0E0C0D0C000C001C002E4F53DF53EF548
:100107003FF540F5417A20E538A2E779047835E6EE
:1001170033F608D9FA7905783DE636D4F608D9F9E1
:10012700DAE5D002D001D000D0D0D0E022C0E0C0C4
:10013700D0C000C001C002E4F53DF53EF53FF540F3
:10014700F5417A20E538A2E779047835E633F608F1
:10015700D9FA7905783DC0D0E6243320E70224D0C8
:1001670020E30224FDD0D033F608D9EADAD6D0024C
:10017700D001D000D0D0D0E022C0E0C0D0C000C0B5
:1001870001C0027A207905C37841E613C0D030E771
:100197000224D030E30224FDF618D0D0D9EC79043C
:1001A7007838E613F618D9FADADBD002D001D00096
:1001B700D0D0D0E022C0E0C0D0E5352539F535E50F
:1001C70036353AF536E537353BF537E538353CF51D
:1001D70038D0D0D0E022C0E0C0D0C3E5359539F59E
:1001E70035E536953AF536E537953BF537E53895F4
:1001F7003CF538D0D0D0E022C0E0C0D0C3E535957B
:1002070039E536953AE537953BE538953C9201D087
:10021700D0D0E022C0E0C0D0C3E5399535E53A95A6
:1002270036E53B9537E53C95389201D0D0D0E022B2
:10023700C0E0C0D0C201C3E53995357014E53A95E1
:1002470036700EE53B95377008E53C95387002D25D
:1002570001D0D0D0E02212023720010302021B2274
:100267001202372001030201FF22C0E0C0F0C0D014
:10027700C000C001C002C003E5358539F0A4F8A964
:10028700F0E5368539F0A429F9E435F0FAE5358546
:100297003AF0A429F9E5F03AFAE433FBE537853972
:1002A700F0A42AFAE5F03BFBE536853AF0A42AFAF2
:1002B700E5F03BFBE535853BF0A42AFAE5F03BFB8F
:1002C700E5388539F0A42BFBE537853AF0A42BFBFD
:1002D700E536853BF0A42BFBE535853CF0A42BFBED
:1002E7008B388A3789368835D003D002D001D000C1
:1002F700D0D0D0F0D0E022C0E0C0D0C000C001C054
:1003070002C003C0047C20E4F8F9FAFBC3E53533E7
:10031700F535E53633F536E53733F537E53833F573
:1003270038E833F8E933F9EA33FAEB33FBC3E895F6
:1003370039E9953AEA953BEB953C4013E89539F84E
:10034700E9953AF9EA953BFAEB953CFB433501DC35
:10035700BBD004D003D002D001D000D0D0D0E0224F
:1003670054656D70433D207878200054656D704367
:100377003D00E58954F04401F589758CFD758A5A6D
:10038700D2A9C28C22758CFD758A5AB2953275C86E
:100397000075CDF575CC2775CBF575CA27E4F53013
:1003A700F531D2ADD2CA22C2CFC0E0C0D0C0F0C0B2
:1003B70082C0830530E53070020531E530B4F43D85
:1003C700E531B40138E4F530F531D200B2E8E53370
:1003D7006016E534600BC28CC29575340015338006
:1003E7000ED28C7534018007C28CC295753400E536
:1003F7003220E804240180022499D4F532D083D036
:1004070082D0F0D0D0D0E032C0F9A4B0999282F86F
:1004170080908883C6A1868E758160120379120346
:1004270095120535759AAA759BA2759CFF759DFF58
:1004370075E800759500D2AF12009CC0E0740114F6
:100447001200DCD0E0C083C082C0E09003671200D6
:10045700CFD0E0D082D083D200753200754A98752C
:100467004B08754C00754D0075A180C0027A321299
:10047700004DD00230E90630000312057120F91C47
:10048700C0027A3212004DD00220F91030F9FDC2B5
:10049700CAE4F530F531F532D2CA80033000D5C24F
:1004A7000012060612061012065DC0E07407141249
:1004B70000DCD0E01204C41205A702047BC0E0C030
:1004C700F0C082C083854E35854F368550378551BC
:1004D70038753964753A00753B00753C001202FEA9
:1004E700AC35AB367A00EB7006ECC39464400CEC89
:1004F700C39464FCEB9400FB0A80EBEC75F00A8470
:10050700F9A8F090040FE893F591EA7008E97005EF
:100517007592FF8004E993F592EA70057593FF8061
:1005270004EA93F593D083D082D0F0D0E022C28E34
:1005370053890F438920438780758DFD758BFDD2C5
:100547008E759852D299223099FDC299F59922E475
:1005570093600612054EA380F622E53545364537EA
:1005670045387012743012054E22753301227533E7
:100577000A22753305227F0075390A753A00753BE3
:1005870000753C001202FEE5392430C0E00FE53566
:1005970045364537453870E0D0E012054EDFF92281
:1005A700854E35854F368550378551387539647591
:1005B7003A00753B00753C001202FEAC35AB367A4B
:1005C70000EB7006ECC39464400CECC39464FCEB42
:1005D7009400FB0A80EBEA243012054EEC75F00A12
:1005E70084243012054EE5F0243012054E740D12A6
:1005F700054E740A12054E22F5A1A9A3A8A22274DA
:10060700001205FF8852895322E5524553700D7534
:1006170042007543007544007545002274011205B8
:10062700FF883589367537007538007539C4753ACE
:1006370009753B00753C0012027185523985533AA2
:10064700753B00753C001202FE85354285364385B1
:10065700374485384522E542F535E543F536E54427
:10066700F537E545F5387539E8753A03753B007593
:100677003C0012027175392C753A01753B00753CC7
:10068700001202FE753964753A00753B00753C002F
:10069700120271753929753A00753B00753C0012D5
:1006A70002FEE54AF539E54BF53AE54CF53BE54DF4
:1006B700F53C1201BCE535F54EE536F54FE537F566
:1006C70050E538F55122900372120556854E35854F
:1006D7004F36855037855138120561740D12054E16
:1006E700740A12054E2230313233343536373839F1
:1006F700414243444546009006ED9312054E22C001
:10070700E0C4540F1206FED0E0540F1206FE22E991
:10071700120706E81207062241494E303D3078009D
:100727002041494E313D30780074001205FF900793
:100737001F12055612071674011205FF900727129C
:100747000556120716740D12054E740A12054E222D
:1007570020566F705F6D563D00E545120706E5446C
:10076700120706E543120706E5421207062290071D
:1007770057120556120760740D12054E740A1205BA
:020787004E2200
:00000001FF
