:0300000002062FC6
:0100030032CA
:03000B0002039558
:0100130032BA
:01001B0032B2
:0100230032AA
:03002B000203BF0E
:10002E000D0A48656C6C6F2C20576F726C64210D35
:02003E000A00B6
:10004000C00078BE00000000D8FAD00022C000C076
:1000500001793278DFD8FED9FADAF6D001D0002261
:10006000D291120040C29112004022A2E79281A2D6
:10007000E69283A2E59285A2E49287120060A2E351
:100080009281A2E29283A2E19285A2E0928712007D
:100090006022D29702006BC29702006BC291C0022D
:1000A0007A2812004DD00274331200977433120074
:1000B0009774321200977428120097740C120097EC
:1000C0007401120097C0027A0212004DD00222E49D
:1000D000936006120092A380F622444044800200FE
:1000E00097C0E0E8C4540F4430120092E8540F4423
:0700F00030120092D0E02263
:1000F700C0E0C0D0C000C001C002E4F54AF54BF52E
:100107004CF54DF54E7A20E545A2E779047842E6AD
:1001170033F608D9FA7905784AE636D4F608D9F9D4
:10012700DAE5D002D001D000D0D0D0E022C0E0C0C4
:10013700D0C000C001C002E4F54AF54BF54CF54DBF
:10014700F54E7A20E545A2E779047842E633F608CA
:10015700D9FA7905784AC0D0E6243320E70224D0BB
:1001670020E30224FDD0D033F608D9EADAD6D0024C
:10017700D001D000D0D0D0E022C0E0C0D0C000C0B5
:1001870001C0027A207905C3784EE613C0D030E764
:100197000224D030E30224FDF618D0D0D9EC79043C
:1001A7007845E613F618D9FADADBD002D001D00089
:1001B700D0D0D0E022C0E0C0D0E5422546F542E5E8
:1001C700433547F543E5443548F544E5453549F5B5
:1001D70045D0D0D0E022C0E0C0D0C3E5429546F577
:1001E70042E5439547F543E5449548F544E545958C
:1001F70049F545D0D0D0E022C0E0C0D0C3E5429554
:1002070046E5439547E5449548E54595499201D02C
:10021700D0D0E022C0E0C0D0C3E5469542E547957F
:1002270043E5489544E54995459201D0D0D0E02271
:10023700C0E0C0D0C201C3E54695427014E54795BA
:1002470043700EE54895447008E54995457002D21C
:1002570001D0D0D0E02212023720010302021B2274
:100267001202372001030201FF22C0E0C0F0C0D014
:10027700C000C001C002C003E5428546F0A4F8A94A
:10028700F0E5438546F0A429F9E435F0FAE542851F
:1002970047F0A429F9E5F03AFAE433FBE54485464B
:1002A700F0A42AFAE5F03BFBE5438547F0A42AFAD8
:1002B700E5F03BFBE5428548F0A42AFAE5F03BFB75
:1002C700E5458546F0A42BFBE5448547F0A42BFBC9
:1002D700E5438548F0A42BFBE5428549F0A42BFBB9
:1002E7008B458A4489438842D003D002D001D0008D
:1002F700D0D0D0F0D0E022C0E0C0D0C000C001C054
:1003070002C003C0047C20E4F8F9FAFBC3E54233DA
:10031700F542E54333F543E54433F544E54533F525
:1003270045E833F8E933F9EA33FAEB33FBC3E895E9
:1003370046E99547EA9548EB95494013E89546F80D
:10034700E99547F9EA9548FAEB9549FB434201DC01
:10035700BBD004D003D002D001D000D0D0D0E0224F
:1003670054656D70433D20787820007343202073D7
:100377005420207243202072540000E58954F04431
:1003870001F589758CFD758A5AD2A9C28C22758CA4
:10039700FD758A5AB2953275C80075CDF575CC27AB
:1003A70075CBF575CA27E4F530F531F532F533F538
:1003B70040F541D2ADD2CA22C2CFC0E0C0D0C0F012
:1003C700C082C083053CE53CB46403753C00C3E5CB
:1003D7003C953D4004C2B78002D2B70530E5307086
:1003E7000205310532E53270020533E532B4E82DF6
:1003F700E533B40328053FE4F532F533E5376016F6
:10040700E541B42707E540B40F0280110540E540F8
:10041700700B05418007E4F540F541F53FE530B441
:10042700F414E531B4010FE4F530F531D200B2E848
:10043700E53560021535E5356011E531700DE530BC
:10044700B4640280065004D28C8004C28CC295E545
:100457003420E8072401D4F53480052499D4F534F1
:10046700D083D082D0F0D0D0D0E032C0F9A4B099F8
:100477009282F880908883C6A1868EC0E0753D0081
:10048700C2B7753700E4F53FF540F541F535C28C45
:10049700C295C202D0E022C0E0C0F0C0D0E537600C
:1004A70072AC40AB41EBC39427400E7008ECC39489
:1004B7000F500280047B277C0F7A00EB7006ECC399
:1004C70094E8400CECC394E8FCEB9403FB0A80EB44
:1004D7007900EB7006ECC39464400CECC39464FCA5
:1004E700EB9400FB0980EBEC75F00A84F8AFF0C0E1
:1004F700E0740D141200DCD0E0EA2430120092E917
:100507002430120092E82430120092EF24301200B7
:1005170092801EC0E0740D141200DCD0E07420122B
:10052700009274201200927420120092742012001C
:1005370092D0D0D0F0D0E022E537B4003E753D0030
:10054700E55F7013120B88E55DB560028009855D74
:1005570060755E00755F00120B30500BE55E120B85
:100567009E755E00755F00120BC020EA0B1207B77D
:10057700753F00C2027537010206AEB40135753DFD
:1005870064E53EC394324002D202E53FC3943C4047
:100597000F20020C753D007537061207BB0206AE29
:1005A700E538C3953E5009753F007537021207B706
:1005B7000206AEB40216753D14E539C3953F5009DE
:1005C700753F007537031207B70206AEB4031675F9
:1005D7003D64E53AC3953E5009753F0075370412EF
:1005E70007B70206AEB40413753D14E53BC3953F48
:1005F70050067537051207B70206AEB40513753DE9
:1006070000E53EC3943C50061207BF75370002064B
:10061700AEB406028003020541753D0020EA0302DD
:1006270006AE7537000206AE758170753700120386
:100637008212039E12077B759AAA759BA2759CFF6F
:10064700759DFF75E800759500D2AF12009CC0E05C
:100657007401141200DCD0E0C083C082C0E09003B4
:10066700671200CFD0E0D082D083D20075340075F6
:10067700539875540875550075560075A180C002CA
:100687007A3212004DD00275389675393C753ADCCE
:10069700753B2D120986120B88855D60755E0075A6
:1006A7005F00E4F540F54120F812C0027A321200EB
:1006B7004DD00220F80630F8FD12048220F91DC043
:1006C700027A3212004DD00220F91130F9FDC2CA68
:1006D700E4F530F531F534D2CA02070230001C12B6
:1006E700084F1208591208A6C0E07407141200DC5C
:1006F700D0E012070A1207ED12091DC20012049E6C
:1007070002053FC0E0C0F0C082C0838557428558CC
:1007170043855944855A45754664754700754800B1
:100727007549001202FEAC42AB437A00EB7006EC4F
:10073700C39464400CECC39464FCEB9400FB0A8004
:10074700EBEC75F00A84F9A8F0900472E893F59140
:10075700EA7008E970057592FF8004E993F592EA5B
:1007670070057593FF8004EA93F593D083D082D008
:10077700F0D0E022C28E53890F43892043878075CA
:100787008DFD758BFDD28E759852D299223099FDC9
:10079700C299F59922E4936006120794A380F62282
:1007A700E54245434544454570127430120794228B
:1007B7007535012275350A22753505227F00754684
:1007C7000A7547007548007549001202FEE5462480
:1007D70030C0E00FE54245434544454570E0D0E071
:1007E700120794DFF9228557428558438559448576
:1007F7005A457546647547007548007549001202E9
:10080700FE85423EAC42AB437A00EB7006ECC394E4
:1008170064400CECC39464FCEB9400FB0A80EBEAA5
:100827002430120794EC75F00A842430120794E5FB
:10083700F02430120794740D120794740A12079467
:1008470022F5A1A9A3A8A2227400120848885B89EF
:100857005C22E55B455C700D754F00755000755166
:100867000075520022740112084888428943754472
:1008770000754500754607754710754800754900AE
:10088700120271855B46855C477548007549001201
:1008970002FE85424F85435085445185455222E5E6
:1008A7004FF542E550F543E551F544E552F54575F9
:1008B70046E8754703754800754900120271754689
:1008C7002C7547017548007549001202FE7546648C
:1008D70075470075480075490012027175462975FC
:1008E70047007548007549001202FEE553F546E5D5
:1008F70054F547E555F548E556F5491201BCE5427B
:10090700F557E543F558E544F559E545F55A2253BA
:10091700544154453D00C0E0C082C083900916127F
:10092700079CE5372430120794740D120794740A54
:10093700120794D083D082D0E022C0E0C0F0C0D0AC
:1009470075F064842430120092E5F075F00A84246F
:1009570030120092E5F02430120092D0D0D0F0D0BF
:10096700E022C0F9A4B0999282F880908883C6A14A
:10097700868E780F794A7AFADAFED9FAD8F62243C0
:100987009B54439C01539CAB539DFE2220F90B12B1
:10099700097920F90530F9FDC322C292C294C296A3
:1009A700C2A0A2A282A482A682B05002C3221209C8
:1009B70079A2A282A482A682B05002C322D292D286
:1009C70094D296D2A0C29220A2077F0130A2FDD373
:1009D7002220A4077F0230A4FDD32220A6077F038D
:1009E70030A6FDD32220B0077F0A30B0FDD322D234
:1009F70092C29420A2077F0430A2FDD32220A4072D
:100A07007F0530A4FDD32220A6077F0630A6FDD39D
:100A17002220B0077F0B30B0FDD322D294C296209C
:100A2700A2077F0730A2FDD32220A4077F0830A4A6
:100A3700FDD32220A6077F0930A6FDD32220B007C9
:100A47007F0C30B0FDD322D296C2A020A2077F0E22
:100A570030A2FDD32220A4077F0030A4FDD322209B
:100A6700A6077F0F30A6FDD32220B0077F0D30B039
:100A7700FDD322D2A0C322C29220A2077F0A30A2AE
:100A8700FDD32220A4077F0B30A4FDD32220A60785
:100A97007F0C30A6FDD32220B0077F0D30B0FDD3E9
:100AA70022D292C29420A2077F0330A2FDD3222034
:100AB700A4077F0630A4FDD32220A6077F0930A60E
:100AC700FDD32220B0077F0F30B0FDD322D294C2CE
:100AD7009620A2077F0230A2FDD32220A4077F051C
:100AE70030A4FDD32220A6077F0830A6FDD32220FD
:100AF700B0077F0030B0FDD322D296C2A020A20754
:100B07007F0130A2FDD32220A4077F0430A4FDD3A8
:100B17002220A6077F0730A6FDD32220B0077F0E2D
:100B270030B0FDD322D2A0C322C3C0E0C0F0C0D0F2
:100B3700120993503CEFB40D0CE55F603CD0D0D365
:100B4700D0F0D0E022EFC3940A502EE55FB4030241
:100B57008027E55E255EF5F0E55E23232325F02F4C
:100B6700F55E055FE55FB40310D0D0D3D0F0D0E0D9
:100B770022D0D0C3D0F0D0E022D0D0C3D0F0D0E084
:100B870022C0E0E420E8028002440120E90280025A
:100B97004402F55DD0E022C0E0E55DB40005855E66
:100BA7003A8013B40105855E3B800BB40205855E70
:100BB700388003855E39D0E022C0E0C082C083C0A0
:100BC700E07401141200DCD0E0C083C082C0E09062
:100BD70003721200CFD0E0D082D083C0E07401143A
:100BE7001200DAD0E0C083C082C0E0900381120017
:100BF700CFD0E0D082D083C0E07401141200DAD0E5
:100C0700E0E53A120941C0E07405141200DAD0E0B9
:100C1700E53B120941C0E07409141200DAD0E0E59F
:100C270038120941C0E0740D141200DAD0E0E5393A
:100C3700120941D083D082D0E022010002000400D3
:100C4700080010002000400080000001000200049E
:100C570000080010002000400080C0E0C082C08370
:100C67001209935016EFC394105010900C41EF23C4
:100C770093F5E8EF230493F5958000D083D082D0D5
:020C8700E02269
:00000001FF
