:0300000002027C7D
:10000300C0F9A4B0999282F880908883C6A1868EA5
:10001300900003E53345346004D2EF8002C2EF3031
:10002300FB2FE530540F93F591E530C4540F93F54E
:1000330092E531540F93F593E531C4540F93F5943E
:10004300E532540F93F58EE532C4540F93F58F8048
:1000530024E533540F93F591E533C4540F93F5928C
:10006300E534540F93F593E534C4540F93F5947525
:100073008EFF758FFF227804C3E53033F530E53109
:1000830033F531E53233F532E53333F533E53433E4
:10009300F534D8E4EF4530F530227804C3E5341362
:1000A300F534E53313F533E53213F532E53113F562
:1000B30031E53013F530D8E422780F794A7AFADA49
:1000C300FED9FAD8F622439B54439C01539CAB536D
:1000D3009DFE2220F90E1200BC20F90830F9FD1212
:1000E300009DC322C292C294C296C2A0A2A282A4BD
:1000F30082A682B05002C3221200BCA2A282A482B2
:10010300A682B05002C322D292D294D296D2A03009
:10011300E8030201CAC29220A2077F0130A2FDD3E5
:100123002220A4077F0230A4FDD32220A6077F0349
:1001330030A6FDD32220B0077F0A30B0FDD322D2F0
:1001430092C29420A2077F0430A2FDD32220A407E9
:100153007F0530A4FDD32220A6077F0630A6FDD35A
:100163002220B0077F0B30B0FDD322D294C2962059
:10017300A2077F0730A2FDD32220A4077F0830A463
:10018300FDD32220A6077F0930A6FDD32220B00786
:100193007F0C30B0FDD322D296C2A020A2077F0EDF
:1001A30030A2FDD32220A4077F0030A4FDD3222058
:1001B300A6077F0F30A6FDD32220B0077F0D30B0F6
:1001C300FDD322D2A0C322C29220A2077F0A30A26B
:1001D300FDD32220A4077F0B30A4FDD32220A60742
:1001E3007F0C30A6FDD32220B0077F0D30B0FDD3A6
:1001F30022D292C29420A2077F0330A2FDD32220F1
:10020300A4077F0630A4FDD32220A6077F0930A6CA
:10021300FDD32220B0077F0F30B0FDD322D294C28A
:100223009620A2077F0230A2FDD32220A4077F05D8
:1002330030A4FDD32220A6077F0830A6FDD32220B9
:10024300B0077F0030B0FDD322D296C2A020A20710
:100253007F0130A2FDD32220A4077F0430A4FDD365
:100263002220A6077F0730A6FDD32220B0077F0EEA
:1002730030B0FDD322D2A0C32275817FE4F5E8F527
:1002830095F530F531F532F533F5341200C9120026
:0C029300D612001350F8120079020291FC
:00000001FF
