:030000000201B545
:0100030032CA
:03000B0002010BE4
:0100130032BA
:01001B0032B2
:0100230032AA
:03002B0002012BA4
:10002E00C00078BE00000000D8FAD00022C000C088
:10003E0001793278DFD8FED9FADAF6D001D0002273
:10004E00D2B312002EC2B312002E22A2E792A3A2A6
:10005E00E692A5A2E592A7A2E492B112004EA2E307
:10006E0092A3A2E292A5A2E192A7A2E092B11200FF
:10007E004E22D2B7020059C2B7020059C2B3C2B55E
:10008E00C0027A2812003BD00274331200857433FA
:10009E0012008574321200857428120085740C12B9
:1000AE0000857401120085C0027A0212003BD00254
:1000BE0022E4936006120080A380F622444044801E
:1000CE00020085C0E0E8C4540F4430120080E854AA
:1000DE000F4430120080D0E0224243445F636F75BC
:1000EE006E7465723A2078782000E58954F04401E8
:1000FE00F589758CFD758A5AD2A9C28C22758CFD34
:10010E00758A5A3275C80075CDF575CC2775CBF545
:10011E0075CA27E4F530F531D2ADD2CA22C2CFB2BC
:10012E0091C0E0C0D00530E53070020531E530B445
:10013E00F41CE531B40117D200B2E8E4F530F53124
:10014E00E53220E804240180022499D4F532D0D07F
:10015E00D0E032C0F9A4B0999282F880908883C61C
:10016E00A1868E900161E532C4540F93F592E5326B
:10017E00540F93F59122D28CC0027A6412003BD0B8
:10018E0002C28CC2A9C29522790A1201A222790555
:10019E001201A222C001120184C0027A6412003B35
:1001AE00D002D9F0D0012275817F1200F81201120F
:1001BE00759A7F759B22759CFF759DFF75E800757E
:1001CE009500D2AF12008AC0E07401141200CCD098
:1001DE00E0C083C082C0E09000E71200BFD0E0D044
:1001EE0082D083D20075320030E90020F91CC002A3
:1001FE007A3212003BD00220F91030F9FDC2CAE467
:10020E00F530F531F532D2CA80033000DEC200C0BF
:10021E00E0740E141200CCD0E0C000A8321200D14F
:08022E00D0001201710201F978
:00000001FF
