:0300000002064BAA
:0100030032CA
:03000B0002039558
:0100130032BA
:01001B0032B2
:0100230032AA
:03002B000203BF0E
:10002E000D0A48656C6C6F2C20576F726C64210D35
:02003E000A00B6
:10004000C00078BE00000000D8FAD00022C000C076
:1000500001793278DFD8FED9FADAF6D001D0002261
:10006000D291120040C29112004022A2E79281A2D6
:10007000E69283A2E59285A2E49287120060A2E351
:100080009281A2E29283A2E19285A2E0928712007D
:100090006022D29702006BC29702006BC291C0022D
:1000A0007A2812004DD00274331200977433120074
:1000B0009774321200977428120097740C120097EC
:1000C0007401120097C0027A0212004DD00222E49D
:1000D000936006120092A380F622444044800200FE
:1000E00097C0E0E8C4540F4430120092E8540F4423
:0700F00030120092D0E02263
:1000F700C0E0C0D0C000C001C002E4F54AF54BF52E
:100107004CF54DF54E7A20E545A2E779047842E6AD
:1001170033F608D9FA7905784AE636D4F608D9F9D4
:10012700DAE5D002D001D000D0D0D0E022C0E0C0C4
:10013700D0C000C001C002E4F54AF54BF54CF54DBF
:10014700F54E7A20E545A2E779047842E633F608CA
:10015700D9FA7905784AC0D0E6243320E70224D0BB
:1001670020E30224FDD0D033F608D9EADAD6D0024C
:10017700D001D000D0D0D0E022C0E0C0D0C000C0B5
:1001870001C0027A207905C3784EE613C0D030E764
:100197000224D030E30224FDF618D0D0D9EC79043C
:1001A7007845E613F618D9FADADBD002D001D00089
:1001B700D0D0D0E022C0E0C0D0E5422546F542E5E8
:1001C700433547F543E5443548F544E5453549F5B5
:1001D70045D0D0D0E022C0E0C0D0C3E5429546F577
:1001E70042E5439547F543E5449548F544E545958C
:1001F70049F545D0D0D0E022C0E0C0D0C3E5429554
:1002070046E5439547E5449548E54595499201D02C
:10021700D0D0E022C0E0C0D0C3E5469542E547957F
:1002270043E5489544E54995459201D0D0D0E02271
:10023700C0E0C0D0C201C3E54695427014E54795BA
:1002470043700EE54895447008E54995457002D21C
:1002570001D0D0D0E02212023720010302021B2274
:100267001202372001030201FF22C0E0C0F0C0D014
:10027700C000C001C002C003E5428546F0A4F8A94A
:10028700F0E5438546F0A429F9E435F0FAE542851F
:1002970047F0A429F9E5F03AFAE433FBE54485464B
:1002A700F0A42AFAE5F03BFBE5438547F0A42AFAD8
:1002B700E5F03BFBE5428548F0A42AFAE5F03BFB75
:1002C700E5458546F0A42BFBE5448547F0A42BFBC9
:1002D700E5438548F0A42BFBE5428549F0A42BFBB9
:1002E7008B458A4489438842D003D002D001D0008D
:1002F700D0D0D0F0D0E022C0E0C0D0C000C001C054
:1003070002C003C0047C20E4F8F9FAFBC3E54233DA
:10031700F542E54333F543E54433F544E54533F525
:1003270045E833F8E933F9EA33FAEB33FBC3E895E9
:1003370046E99547EA9548EB95494013E89546F80D
:10034700E99547F9EA9548FAEB9549FB434201DC01
:10035700BBD004D003D002D001D000D0D0D0E0224F
:1003670054656D70433D20787820007343202073D7
:100377005420207243202072540000E58954F04431
:1003870001F589758CFD758A5AD2A9C28C22758CA4
:10039700FD758A5AB2953275C80075CDF575CC27AB
:1003A70075CBF575CA27E4F530F531F532F533F538
:1003B70040F541D2ADD2CA22C2CFC0E0C0D0C0F012
:1003C700C082C083053CE53CB46403753C00C3E5CB
:1003D7003C953D4004C2B78002D2B70530E5307086
:1003E7000205310532E53270020533E532B4E82DF6
:1003F700E533B40328053FE4F532F533E5376016F6
:10040700E541B42707E540B40F0280110540E540F8
:10041700700B05418007E4F540F541F53FE530B441
:10042700F414E531B4010FE4F530F531D200B2E848
:10043700E53560021535E5356011E531700DE530BC
:10044700B4640280065004D28C8004C28CC295E545
:100457003420E8072401D4F53480052499D4F534F1
:10046700D083D082D0F0D0D0D0E032C0F9A4B099F8
:100477009282F880908883C6A1868EC0E0753D0081
:10048700C2B7753700E4F53FF540F541F535C28C45
:10049700C295C202D0E022C0E0C0F0C0D0E537600C
:1004A70072AC40AB41EBC39427400E7008ECC39489
:1004B7000F500280047B277C0F7A00EB7006ECC399
:1004C70094E8400CECC394E8FCEB9403FB0A80EB44
:1004D7007900EB7006ECC39464400CECC39464FCA5
:1004E700EB9400FB0980EBEC75F00A84F8AFF0C0E1
:1004F700E0740D141200DCD0E0EA2430120092E917
:100507002430120092E82430120092EF24301200B7
:1005170092801EC0E0740D141200DCD0E07420122B
:10052700009274201200927420120092742012001C
:1005370092D0D0D0F0D0E022E537B4003E753D0030
:10054700E55F7013120BB3E55DB560028009855D49
:1005570060755E00755F00120B5B500BE55E120B5A
:10056700C9755E00755F00120BEB20EA0B753F0043
:10057700C2027537011207D30206CAB4013A753DA4
:100587006420EF32E53EC394324002D202E53FC316
:10059700943C400F20020C753D007537061207DCAE
:1005A7000206CAE538C3953E5009753F0075370204
:1005B7001207D30206CA8067B4021920EF61753D9E
:1005C70014E539C3953F5009753F00753703120786
:1005D700D30206CAB4031920EF45753D64E53AC353
:1005E700953E5009753F007537041207D30206CAB6
:1005F700B4041620EF29753D14E53BC3953F50061B
:100607007537051207D30206CAB40521753D00E503
:100617003EC3943C50061207E57537000206CA80B0
:1006270000753705753D001207DC0206CAB40602DD
:100637008003020541753D0020EA030206CA7537AB
:10064700000206CA75817075370012038212039E75
:10065700120797759AAA759BA2759CFF759DFF75E2
:10066700E800759500D2AF12009CC0E07401141227
:1006770000DCD0E0C083C082C0E09003671200CFE7
:10068700D0E0D082D083D20075340075539875546A
:100697000875550075560075A180C0027A321200A0
:1006A7004DD00275389675393C753ADC753B2D127D
:1006B70009B1120BB3855D60755E00755F00E4F5E7
:1006C70040F54120F812C0027A3212004DD00220C4
:1006D700F80630F8FD12048220F91DC0027A3212A2
:1006E700004DD00220F91130F9FDC2CAE4F530F50A
:1006F70031F534D2CA02071E30001C12087A1208DC
:10070700841208D1C0E07407141200DCD0E012078D
:1007170026120818120948C20012049E02053FC09B
:10072700E0C0F0C082C0838557428558438559444D
:10073700855A457546647547007548007549001226
:1007470002FEAC42AB437A00EB7006ECC394644004
:100757000CECC39464FCEB9400FB0A80EBEC75F0A3
:100767000A84F9A8F0900472E893F591EA7008E911
:1007770070057592FF8004E993F592EA7005759309
:10078700FF8004EA93F593D083D082D0F0D0E022A3
:10079700C28E53890F438920438780758DFD758BE2
:1007A700FDD28E759852D299223099FDC299F5994A
:1007B70022E49360061207B0A380F622E542454380
:1007C70045444545702174301207B022753501E460
:1007D700F530F5312275350AE4F530F531227535F6
:1007E70005E4F530F531227F0075460A7547007537
:1007F70048007549001202FEE5462430C0E00FE5C7
:100807004245434544454570E0D0E01207B0DFF963
:1008170022855742855843855944855A457546640C
:100827007547007548007549001202FE85423EACC7
:1008370042AB437A00EB7006ECC39464400CECC304
:100847009464FCEB9400FB0A80EBEA24301207B0B7
:10085700EC75F00A8424301207B0E5F02430120753
:10086700B0740D1207B0740A1207B022F5A1A9A33C
:10087700A8A2227400120873885B895C22E55B4595
:100887005C700D754F007550007551007552002250
:1008970074011208738842894375440075450075D1
:1008A7004607754710754800754900120271855B48
:1008B70046855C477548007549001202FE85424F20
:1008C70085435085445185455222E54FF542E55011
:1008D700F543E551F544E552F5457546E875470397
:1008E70075480075490012027175462C75470175E8
:1008F70048007549001202FE754664754700754841
:100907000075490012027175462975470075480040
:100917007549001202FEE553F546E554F547E555DE
:10092700F548E556F5491201BCE542F557E543F5AB
:1009370058E544F559E545F55A2253544154453D88
:1009470000C0E0C082C0839009411207B8E5372490
:10095700301207B0740D1207B0740A1207B0D083B3
:10096700D082D0E022C0E0C0F0C0D075F06484240B
:1009770030120092E5F075F00A842430120092E5F7
:10098700F02430120092D0D0D0F0D0E022C0F9A4E9
:10099700B0999282F880908883C6A1868E780F7965
:1009A7004A7AFADAFED9FAD8F622439B54439C01D5
:1009B700539CAB539DFE2220F90B1209A420F90585
:1009C70030F9FDC322C292C294C296C2A0A2A282EB
:1009D700A482A682B05002C3221209A4A2A282A4B2
:1009E70082A682B05002C322D292D294D296D2A0CB
:1009F700C29220A2077F0130A2FDD32220A4077F45
:100A07000230A4FDD32220A6077F0330A6FDD32200
:100A170020B0077F0A30B0FDD322D292C29420A221
:100A2700077F0430A2FDD32220A4077F0530A4FD51
:100A3700D32220A6077F0630A6FDD32220B0077F4A
:100A47000B30B0FDD322D294C29620A2077F073085
:100A5700A2FDD32220A4077F0830A4FDD32220A61D
:100A6700077F0930A6FDD32220B0077F0C30B0FDE9
:100A7700D322D296C2A020A2077F0E30A2FDD32296
:100A870020A4077F0030A4FDD32220A6077F0F30C4
:100A9700A6FDD32220B0077F0D30B0FDD322D2A010
:100AA700C322C29220A2077F0A30A2FDD32220A42C
:100AB700077F0B30A4FDD32220A6077F0C30A6FDAD
:100AC700D32220B0077F0D30B0FDD322D292C2943B
:100AD70020A2077F0330A2FDD32220A4077F063080
:100AE700A4FDD32220A6077F0930A6FDD32220B07C
:100AF700077F0F30B0FDD322D294C29620A2077F82
:100B07000230A2FDD32220A4077F0530A4FDD32203
:100B170020A6077F0830A6FDD32220B0077F00302C
:100B2700B0FDD322D296C2A020A2077F0130A2FD3A
:100B3700D32220A4077F0430A4FDD32220A6077F59
:100B47000730A6FDD32220B0077F0E30B0FDD32299
:100B5700D2A0C322C3C0E0C0F0C0D01209BE503C2F
:100B6700EFB40D0CE55F603CD0D0D3D0F0D0E022DD
:100B7700EFC3940A502EE55FB403028027E55E2594
:100B87005EF5F0E55E23232325F02FF55E055FE58F
:100B97005FB40310D0D0D3D0F0D0E022D0D0C3D0F0
:100BA700F0D0E022D0D0C3D0F0D0E022C0E0E420E3
:100BB700E8028002440120E90280024402F55DD088
:100BC700E022C0E0E55DB40005855E3A8013B4011C
:100BD70005855E3B800BB40205855E388003855E24
:100BE70039D0E022C0E0C082C083C0E07401141293
:100BF70000DCD0E0C083C082C0E09003721200CF57
:100C0700D0E0D082D083C0E07401141200DAD0E0C3
:100C1700C083C082C0E09003811200CFD0E0D082B1
:100C2700D083C0E07401141200DAD0E0E53A12096B
:100C37006CC0E07405141200DAD0E0E53B12096CD1
:100C4700C0E07409141200DAD0E0E53812096CC06C
:100C5700E0740D141200DAD0E0E53912096CD08384
:100C6700D082D0E02201000200040008001000201A
:100C7700004000800000010002000400080010008E
:100C87002000400080C0E0C082C0831209BE501619
:100C9700EFC394105010900C6CEF2393F5E8EF23FB
:0D0CA7000493F5958000D083D082D0E02228
:00000001FF
