:0300000002078272
:0100030032CA
:03000B000203E30A
:0100130032BA
:01001B0032B2
:0100230032AA
:03002B0002040DBF
:10002E000D0A48656C6C6F2C20576F726C64210D35
:02003E000A00B6
:10004000C00078BE00000000D8FAD00022C000C076
:1000500001793278DFD8FED9FADAF6D001D0002261
:10006000D291120040C29112004022A2E79281A2D6
:10007000E69283A2E59285A2E49287120060A2E351
:100080009281A2E29283A2E19285A2E0928712007D
:100090006022D29702006BC29702006BC291C0022D
:1000A0007A2812004DD00274331200977433120074
:1000B0009774321200977428120097740C120097EC
:1000C0007401120097C0027A0212004DD00222E49D
:1000D000936006120092A380F622444044800200FE
:1000E00097C0E0E8C4540F4430120092E8540F4423
:0700F00030120092D0E02263
:1000F700C0E0C0D0C000C001C002E4F54BF54CF52C
:100107004DF54EF54F7A20E546A2E779047843E6A8
:1001170033F608D9FA7905784BE636D4F608D9F9D3
:10012700DAE5D002D001D000D0D0D0E022C0E0C0C4
:10013700D0C000C001C002E4F54BF54CF54DF54EBB
:10014700F54F7A20E546A2E779047843E633F608C7
:10015700D9FA7905784BC0D0E6243320E70224D0BA
:1001670020E30224FDD0D033F608D9EADAD6D0024C
:10017700D001D000D0D0D0E022C0E0C0D0C000C0B5
:1001870001C0027A207905C3784FE613C0D030E763
:100197000224D030E30224FDF618D0D0D9EC79043C
:1001A7007846E613F618D9FADADBD002D001D00088
:1001B700D0D0D0E022C0E0C0D0E5432547F543E5E5
:1001C700443548F544E5453549F545E546354AF5AD
:1001D70046D0D0D0E022C0E0C0D0C3E5439547F574
:1001E70043E5449548F544E5459549F545E5469584
:1001F7004AF546D0D0D0E022C0E0C0D0C3E5439551
:1002070047E5449548E5459549E546954A9201D025
:10021700D0D0E022C0E0C0D0C3E5479543E548957C
:1002270044E5499545E54A95469201D0D0D0E0226C
:10023700C0E0C0D0C201C3E54795437014E54895B7
:1002470044700EE54995457008E54A95467002D217
:1002570001D0D0D0E02212023720010302021B2274
:100267001202372001030201FF22C0E0C0F0C0D014
:10027700C000C001C002C003E5438547F0A4F8A948
:10028700F0E5448547F0A429F9E435F0FAE543851C
:1002970048F0A429F9E5F03AFAE433FBE545854748
:1002A700F0A42AFAE5F03BFBE5448548F0A42AFAD6
:1002B700E5F03BFBE5438549F0A42AFAE5F03BFB73
:1002C700E5468547F0A42BFBE5458548F0A42BFBC5
:1002D700E5448549F0A42BFBE543854AF0A42BFBB5
:1002E7008B468A4589448843D003D002D001D00089
:1002F700D0D0D0F0D0E022C0E0C0D0C000C001C054
:1003070002C003C0047C20E4F8F9FAFBC3E54333D9
:10031700F543E54433F544E54533F545E54633F51F
:1003270046E833F8E933F9EA33FAEB33FBC3E895E8
:1003370047E99548EA9549EB954A4013E89547F808
:10034700E99548F9EA9549FAEB954AFB434301DCFD
:10035700BBD004D003D002D001D000D0D0D0E0224F
:1003670054656D70433D20787820007343202073D7
:1003770054202072432020725400005331205052E1
:100387004548454154202000533220534F414B20CC
:1003970020202020005333205245464C4F57202021
:1003A7002000533420484F4C442020202020005365
:1003B7003520434F4F4C2020202020005336204526
:1003C70052524F522020202000E58954F04401F575
:1003D70089758CFD758A5AD2A9C28C22758CFD75D8
:1003E7008A5AB2953275C80075CDF575CC2775CB8D
:1003F700F575CA27E4F530F531F532F533F541F5F2
:1004070042D2ADD2CA22C2CFC0E0C0D0C0F0C082B3
:10041700C083053CE53CB46403753C00C3E53C95EB
:100427003D4004C2B78002D2B70530E530700205FF
:10043700310532E53270020533E532B4E82DE53394
:10044700B40328053FE4F532F533E5376016E54296
:10045700B40307E541B4E70280110541E541700B9C
:1004670005428007E4F541F542F53FE530B4F41461
:10047700E531B4010FE4F530F531D200B2E8E535E6
:1004870060021535E5356011E531700DE530B4646E
:100497000280065004D28C8004C28CC295E53420B9
:1004A700E8072401D4F53480052499D4F534D083A2
:1004B700D082D0F0D0D0D0E032C0F9A4B0999282E7
:1004C700F880908883C6A1868EC0E0753D00C2B7CC
:1004D700753700E4F53FF541F542F535C28CC29515
:1004E700C202D0E022C0E0C0F0C0D0C082C08353B7
:1004F700D0E7C000C001C003C004C007E53760559E
:10050700AC41AB42EBC39403400E7008ECC394E7D5
:10051700500280047B037CE77900EB7006ECC39400
:1005270064400CECC39464FCEB9400FB0980EBEC97
:1005370075F00A84F8AFF0C0E0740E141200DCD036
:10054700E0E92430120092E82430120092EF2430C0
:10055700120092801EC0E0740E141200DCD0E0740A
:1005670020120092742012009274201200927420BC
:10057700120092D007D004D003D001D000D083D08E
:1005870082D0D0D0F0D0E022C0E0C0D0C082C083FB
:10059700C000E537B540028028F540C0E07401147B
:1005A7001200DCD0E0780D7420120092D8F9C0E078
:1005B7007401141200DAD0E078107420120092D877
:1005C700F9D000D083D082D0D0D0E022C0E0C08262
:1005D700C083E537700302066FC0E0740114120090
:1005E700DCD0E0B40114C083C082C0E09003821263
:1005F70000CFD0E0D082D083806EB40214C083C015
:1006070082C0E090038F1200CFD0E0D082D08380E9
:1006170057B40314C083C082C0E090039C1200CF7C
:10062700D0E0D082D0838040B40414C083C082C09D
:10063700E09003A91200CFD0E0D082D0838029B404
:100647000514C083C082C0E09003B61200CFD0E08B
:10065700D082D0838012C083C082C0E09003C312CF
:1006670000CFD0E0D082D083D083D082D0E022E503
:1006770037B4003E753D00E5607013120DB3E55EBB
:10068700B561028009855E61755F00756000120DB6
:100697005B500BE55F120DC9755F00756000120DA9
:1006A700EB20EA0B753F00C202753701120987027A
:1006B700080AB4013A753D6420EF32E53EC394322F
:1006C7004002D202E53FC3943C400F20020C753D27
:1006D7000075370612099002080AE538C3953E509F
:1006E70009753F0075370212098702080A8067B447
:1006F700021920EF61753D14E539C3953F5009751F
:100707003F0075370312098702080AB4031920EF5F
:1007170045753D64E53AC3953E5009753F00753709
:100727000412098702080AB4041620EF29753D143C
:10073700E53BC3953F500675370512098702080A3E
:10074700B40521753D00E53EC3943C500612099956
:1007570075370002080A8000753705753D001209D4
:100767009002080AB406028003020678753D00204D
:10077700EA0302080A75370002080A75817075379F
:10078700007540001203D01203EC12094B759AAAA8
:10079700759BA2759CFF759DFF120F2675680075E6
:1007A700E800759500D2AF12009CC0E074011412E6
:1007B70000DCD0E0C083C082C0E09003671200CFA6
:1007C700D0E0D082D083D200753400755498755527
:1007D7000875560075570075A180C0027A3212005D
:1007E7004DD00275389675393C753ADC753B2D123C
:1007F7000BB1120DB3855E61755F00756000E4F59E
:1008070041F54220F812C0027A3212004DD0022080
:10081700F80630F8FD1204D020F91DC0027A321212
:10082700004DD00220F91130F9FDC2CAE4F530F5C8
:1008370031F534D2CA020858300016C0E0740714E4
:100847001200DCD0E01208DA120FAF120B48120FB9
:1008570046C200120A2E120A3B120A8B12058F1289
:1008670005D31204EC120872020676C0E0C0F0C08D
:10087700D0C082C08353D0E7E5376033E53FC394E8
:1008870064E53F75F06484FAE5F075F00A84F9A829
:10089700F0C0E0740E141200DAD0E0EA243012003F
:1008A70092E92430120092E824301200928019C095
:1008B700E0740E141200DAD0E07420120092742053
:1008C7001200927420120092D083D082D0D0D0F040
:1008D700D0E022C0E0C0F0C082C08385584385596C
:1008E70044855A45855B46754764754800754900D8
:1008F700754A001202FEAC43AB447A00EB7006EC7B
:10090700C39464400CECC39464FCEB9400FB0A8032
:10091700EBEC75F00A84F9A8F09004C0E893F59120
:10092700EA7008E970057592FF8004E993F592EA89
:1009370070057593FF8004EA93F593D083D082D036
:10094700F0D0E022C28E53890F43892043878075F8
:100957008DFD758BFDD28E759852D299223099FDF7
:10096700C299F59922E4936006120964A380F622DE
:10097700E5434544454545467021743012096422D4
:10098700753501E4F530F5312275350AE4F530F5B2
:100997003122753505E4F530F531227F0075470AB8
:1009A700754800754900754A001202FEE547243074
:1009B700C0E00FE54345444545454670E0D0E012A9
:1009C7000964DFF922855843855944855A45855B73
:1009D70046754764754800754900754A001202FE5E
:1009E70085433EAC43AB447A00EB7006ECC394649A
:1009F700400CECC39464FCEB9400FB0A80EBEA2404
:100A070030120964EC75F00A842430120964E5F0A9
:100A17002430120964740D120964740A12096422DD
:100A2700F5A1A9A3A8A2227400120A27120A2788EF
:100A37005C895D22E55C455D700D75500075510060
:100A4700755200755300227401120A27120A27886B
:100A5700438944754500754600754700754810750C
:100A67004900754A00120271855C47855D487549E2
:100A770000754A001202FE85435085445185455250
:100A870085465322E4F558F559F55AF55B7B0A126A
:100A97000A3B855843855944855A45855B46E55049
:100AA700F547E551F548E552F549E553F54A120191
:100AB700BC85435885445985455A85465BDBD085B7
:100AC7005843855944855A45855B4675470A754895
:100AD70000754900754A001202FE7547E87548031C
:100AE700754900754A0012027175473275480175DC
:100AF7004900754A001202FE75476475480075493A
:100B070000754A001202717547297548007549003A
:100B1700754A001202FEE554F547E555F548E556D6
:100B2700F549E557F54A1201BCE543F558E544F5A3
:100B370059E545F55AE546F55B2253544154453D81
:100B470000C0E0C082C083900B4112096CE53724D6
:100B570030120964740D120964740A120964D0838F
:100B6700D082D0E022C0E0C0F0C0D075F064842409
:100B770030120092E5F075F00A842430120092E5F5
:100B8700F02430120092D0D0D0F0D0E022C0F9A4E7
:100B9700B0999282F880908883C6A1868E780F7963
:100BA7004A7AFADAFED9FAD8F622439B54439C01D3
:100BB700539CAB539DFE2220F90B120BA420F90581
:100BC70030F9FDC322C292C294C296C2A0A2A282E9
:100BD700A482A682B05002C322120BA4A2A282A4AE
:100BE70082A682B05002C322D292D294D296D2A0C9
:100BF700C29220A2077F0130A2FDD32220A4077F43
:100C07000230A4FDD32220A6077F0330A6FDD322FE
:100C170020B0077F0A30B0FDD322D292C29420A21F
:100C2700077F0430A2FDD32220A4077F0530A4FD4F
:100C3700D32220A6077F0630A6FDD32220B0077F48
:100C47000B30B0FDD322D294C29620A2077F073083
:100C5700A2FDD32220A4077F0830A4FDD32220A61B
:100C6700077F0930A6FDD32220B0077F0C30B0FDE7
:100C7700D322D296C2A020A2077F0E30A2FDD32294
:100C870020A4077F0030A4FDD32220A6077F0F30C2
:100C9700A6FDD32220B0077F0D30B0FDD322D2A00E
:100CA700C322C29220A2077F0A30A2FDD32220A42A
:100CB700077F0B30A4FDD32220A6077F0C30A6FDAB
:100CC700D32220B0077F0D30B0FDD322D292C29439
:100CD70020A2077F0330A2FDD32220A4077F06307E
:100CE700A4FDD32220A6077F0930A6FDD32220B07A
:100CF700077F0F30B0FDD322D294C29620A2077F80
:100D07000230A2FDD32220A4077F0530A4FDD32201
:100D170020A6077F0830A6FDD32220B0077F00302A
:100D2700B0FDD322D296C2A020A2077F0130A2FD38
:100D3700D32220A4077F0430A4FDD32220A6077F57
:100D47000730A6FDD32220B0077F0E30B0FDD32297
:100D5700D2A0C322C3C0E0C0F0C0D0120BBE503C2B
:100D6700EFB40D0CE560603CD0D0D3D0F0D0E022DA
:100D7700EFC3940A502EE560B403028027E55F2590
:100D87005FF5F0E55F23232325F02FF55F0560E589
:100D970060B40310D0D0D3D0F0D0E022D0D0C3D0ED
:100DA700F0D0E022D0D0C3D0F0D0E022C0E0E420E1
:100DB700E8028002440120E90280024402F55ED085
:100DC700E022C0E0E55EB40005855F3A8013B40118
:100DD70005855F3B800BB40205855F388003855F1F
:100DE70039D0E022C0E0C082C083C0E07401141291
:100DF70000DCD0E0C083C082C0E09003721200CF55
:100E0700D0E0D082D083C0E07401141200DAD0E0C1
:100E1700C083C082C0E09003811200CFD0E0D082AF
:100E2700D083C0E07401141200DAD0E0E53A120B67
:100E37006CC0E07405141200DAD0E0E53B120B6CCD
:100E4700C0E07409141200DAD0E0E538120B6CC068
:100E5700E0740D141200DAD0E0E539120B6CD08380
:100E6700D082D0E022010002000400080010002018
:100E7700004000800000010002000400080010008C
:100E87002000400080C0E0C082C083120BBE501615
:100E9700EFC394105010900E6CEF2393F5E8EF23F7
:100EA7000493F5958000D083D082D0E0227E087F1E
:100EB70000A2E792FDC2FE23D2FEA2FDC0E0EF33FF
:100EC700FFD0E0DEECEF22D2FEC2FFE8543F120E65
:100ED700B4E9120EB4D2FF22D2FEC2FF4480120E32
:100EE700B47400120EB4D2FF22D2FEC2FF74F21203
:100EF7000EB47400120EB4F5627400120EB4F563EA
:100F07007400120EB4F5647400120EB4F565740023
:100F1700120EB4F5667400120EB4F567D2FF22788C
:100F2700317908120ECE782D7908120ECE22EB20D9
:100F3700E70122EAF4FAEBF4FB0AEA70010B22C09C
:100F4700E0C0D053D0E7C0F0C082C083C002C00366
:100F5700C006C007E537603D120EF0AA62AB631208
:100F67000F35EBC394004008701DEAC394C05017B7
:100F7700AA64AB65120F35EBC3940040187008EAFA
:100F8700C394C05002800E753D00C2B77537067511
:100F97006801120990D007D006D003D002D083D0C1
:100FA70082D0F0D0D0D0E022C0E0C0F0C082C083B1
:100FB700855843855944855A45855B467547647509
:100FC7004800754900754A001202FE85433EE53E1A
:100FD700FC7B007A00EB7006ECC39464400CECC316
:100FE7009464FCEB9400FB0A80EBEA24301209645A
:100FF700EC75F00A842430120964E5F024301209F4
:10100700647420120964E538FC7B007A00EB7006F3
:10101700ECC39464400CECC39464FCEB9400FB0AAF
:1010270080EBEA2430120964EC75F00A842430124C
:101037000964E5F024301209647420120964E53963
:10104700FC7B007A00EB7006ECC39464400CECC3A5
:101057009464FCEB9400FB0A80EBEA2430120964E9
:10106700EC75F00A842430120964E5F02430120983
:10107700647420120964E53AFC7B007A00EB700681
:10108700ECC39464400CECC39464FCEB9400FB0A3F
:1010970080EBEA2430120964EC75F00A84243012DC
:1010A7000964E5F024301209647420120964E53BF1
:1010B700FC7B007A00EB7006ECC39464400CECC335
:1010C7009464FCEB9400FB0A80EBEA243012096479
:1010D700EC75F00A842430120964E5F02430120913
:1010E70064740D120964740A120964D083D082D023
:0410F700F0D0E02233
:00000001FF
