:1000000002000375813612039AE5826003020054F0
:10001000758200758300758400758500780079000D
:10002000E8496012E475860093A3758601F0A31871
:10003000B8FFED1980EA7586007582007583007C33
:10004000007D01EC4D600AE4F0A31CBCFFF51D80AF
:10005000F212039912005980FEE4F5E8F59574D583
:10006000C0E07402C0E07480C0E07401C0E074813C
:10007000C0E0E4C0E0120443E58124FAF5819081F8
:100080000175F000120489AA82AB83908100EAF026
:10009000908100E0FA70F97426C0E07403C0E07447
:1000A00080C0E07401C0E07481C0E0E4C0E01204EC
:1000B00043E58124FAF58190810175F000120489ED
:1000C000AA82AB83908100EAF0908100E0FA70F997
:1000D0007436C0E07403C0E07480C0E07401C0E016
:1000E0007481C0E0E4C0E0120443E58124FAF581A4
:1000F00090810175F000120489AA82AB839081007F
:10010000EAF0908100E0FA70F974D5C0E07402C0A2
:10011000E07480C0E07401C0E07481C0E0E4C0E03D
:10012000120443E58124FAF58190810175F00012F3
:100130000489AA82AB83908100EAF0908100E0FA02
:1001400070F9744EC0E07403C0E07480C0E07401C4
:10015000C0E07481C0E0E4C0E0120443E58124FA09
:10016000F5817A007B00C3EA9464EB64809480504C
:1001700045C002C003C002C0037451C0E07403C094
:10018000E07480C0E07400C0E07400C0E0E4C0E04F
:10019000120443E58124F8F581751000751100758E
:1001A000120090810175F00012039ED003D0020A64
:1001B000BA00B30B80B09081007401F0908100E030
:1001C000FA70F920F93C7466C0E07403C0E07480F2
:1001D000C0E07401C0E07481C0E0E4C0E0120443F8
:1001E000E58124FAF58190810175F000120489AA55
:1001F00082AB83908100EAF0908100E0FA70F930E0
:10020000F9FD20FA3C7470C0E07403C0E07480C053
:10021000E07401C0E07481C0E0E4C0E0120443E592
:100220008124FAF58190810175F000120489AA8277
:10023000AB83908100EAF0908100E0FA70F930FA27
:10024000FD20FB3C747AC0E07403C0E07480C0E021
:100250007401C0E07481C0E0E4C0E0120443E581B1
:1002600024FAF58190810175F000120489AA82AB0D
:1002700083908100EAF0908100E0FA70F930FBFD94
:1002800030FC030201C37484C0E07403C0E07480D6
:10029000C0E07401C0E07481C0E0E4C0E012044337
:1002A000E58124FAF58190810175F000120489AA94
:1002B00082AB83908100EAF0908100E0FA70F9301F
:1002C000FCFD0201C3C0F9A4B0999282F880908825
:1002D00083C6A1868E2A2A2A2A2A2A2A2A2A2A2A52
:1002E0002A2A2A2A2A2A2A2A2A2A2A2A2A2A2A2A6E
:1002F0002A2A2A2A2A2A2A2A2A2A2A2A2A2A2A2A5E
:100300002A2A2A2A2A2A2A2A2A2A2A2A2A2A2A2A4D
:100310002A2A2A2A2A2A2A2A2A2A2A2A2A2A2A2A3D
:100320002A2A2A0D0A0048656C6C6F2C20576F72C0
:100330006C64210D0A00416E6F74686572206C69EF
:100340006E6520666F7220796F75210D0A000D0AA7
:1003500000546865206E756D626572206973202592
:100360003033640D0A004B45595F313D300D0A00B2
:100370004B45595F323D300D0A004B45595F333DC7
:10038000300D0A004B45595F343D300D0A003C4E9C
:100390004F20464C4F41543E0022758200228582F8
:1003A0001385831485F015AD13AE14AF158D828EB1
:1003B000838FF01204B160070DBD00F10E80EEA82E
:1003C00010A911AA128E048F03888289838AF012E1
:1003D00004B1FEA3A882A9838D828C838BF0EE12D8
:1003E00004CDA3AD82AC83EE70DF851382851483C8
:1003F0008515F022AA82AB09AC0AAD0B8B828C83E7
:100400008DF0EA1204CD0509E4B50902050A22853A
:10041000820985830A85F00B850C30850D31850EA8
:1004200032850F339003F412056FAA82AB83AC09B7
:10043000AD0AAE0B8C828D838EF0E41204CD8A82DD
:100440008B8322C008858108E50824F8F533E50888
:1004500024FBF8860908860A08860BE50824F8F8C4
:1004600086300886310886329003F412056FAA821E
:10047000AB83AC09AD0AAE0B8C828D838EF0E41297
:1004800004CD8A828B83D00822AA82AB83ACF07D14
:10049000007E008A828B838CF01204B1FFA3AA82B3
:1004A000AB83EF60070DBD00EA0E80E78D828E837F
:1004B0002220F71430F6148883A88220F507E6A8D6
:1004C0008375830022E280F7E49322E02220F71074
:1004D00030F6118883A88220F507F6A8837583007B
:1004E00022F280F7F022AA8274F7C0E07404C0E020
:1004F000C022C0238A82220529E4B52902052A22C6
:10050000AA8274302AFA24C6500A74072AFA3000E4
:10051000034302208A820204E6E582FAC4540FF5FE
:1005200082C002120500D002740F5AF58202050043
:10053000AA24AB25AC26AD27AE28752F20EE2EFEC3
:10054000ED235401FF4206EA2AFAEB33FBEC33FCBD
:10055000ED33FDC3EE952B4008EEC3952BFE430211
:1005600001D52FD98A248B258C268D278E2822858C
:100570008222858323E4F529F52AAA30AB31AC32F7
:100580008A828B838CF01204B1FD74012AF530E469
:100590003BF5318C32EDFA7003020AFFBA25028076
:1005A00003020AF7C204C205C206C207C208C20992
:1005B000C20AC20BC201C202C203752B00752C0015
:1005C000752DFFAB30AC31AD328B828C838DF01248
:1005D00004B1FAA3AB82AC838B308C318D32BA2557
:1005E000078A821204E680928A06BE3000402E8A74
:1005F00006EE24C6402774FFB52D13E52C75F00ACE
:10060000A4FEEA24D02EF52C70BFD20580BBE52DC8
:1006100075F00AA4FEEA24D02EF52D80ACBA2E0A7D
:1006200074FFB52DA4752D00809F8A06BE61004021
:100630000E8A06EE248540075302DFD2008002C2F4
:1006400000BA20028075BA23030206CABA2A03023E
:1006500006CFBA2B02805FBA2D028055BA420280C3
:100660005FBA4303020714BA440302084FBA4503B2
:10067000020869BA4603020865BA470302086DBA60
:10068000490302084FBA4C02803BBA4E030208717C
:10069000BA4F03020856BA50030207E8BA530302DE
:1006A0000738BA550302085BBA580302086002080B
:1006B0009BD2040205C9D2060205C9D2070205C9A8
:1006C000D2090205C9D20A0205C9D20B0205C974B2
:1006D000FFB52D2030090BE53314F88833862C0242
:1006E00005C9E53324FEF888338606088607188E88
:1006F0002C0205C930090BE53314F88833862D0226
:1007000005C9E53324FEF888338606088607188E67
:100710002D0205C930090AE53314F88833860280B2
:100720000FE53324FEF888338603088604188B020D
:100730008A821204E60208A0E53324FDF888338695
:100740000308860408860518188B248C258D268BB3
:10075000828C838DF0120489AB82AC838B2E74FF64
:10076000B52D03852E2D20041DC3E52E952C501686
:10077000E52CC3952EF52CAB2C152CEB600875825F
:10078000201204E680F18524828525838526F012D7
:1007900004B1FBFA6029AB2D152DC3E464808BF006
:1007A00063F08095F050188A821204E6AB24AC25E1
:1007B000AD260BBB00010C8B248C258D2680C72019
:1007C00004030208A0C3E52E952C40030208A0E50F
:1007D0002CC3952EF52CAB2C152CEB70030208A026
:1007E0007582201204E680EEE53324FDF888338616
:1007F0000308860408860518188B248C258D26E5A9
:1008000026FB30E7047A438013EB546060047A508F
:10081000800AEB30E6047A4980027A588A82C00264
:100820001204E675823A1204E67582301204E67507
:1008300082781204E6D002BA4902800BBA500280D4
:10084000068525821205198524821205198051D248
:1008500008752B0A804A752B088045752B0A804045
:10086000752B10803BD2018037D2028033D20380B7
:100870002FE53324FDF888338603088604088605AF
:1008800018188B248C258D268B828C838DF0E5297E
:100890001204CDA3E52A1204CD80058A821204E653
:1008A00020010620020330035AE53324FCF8883384
:1008B00086030886040886050886061818188B24FF
:1008C0008C258D268E2775248E75250375268085AB
:1008D000243485253585263674012534FEE43535E6
:1008E000FFAB368E248F258B268534828535838514
:1008F00036F01204B1FBFA700302057A8A82120400
:10090000E680CCE52B700302057A7B1B30092BE5D2
:100910003314F88833E6FC3395E0FDFEFF8C248D1C
:10092000258E268F2720085EAC247D007E007F0068
:100930008C248D258E268F27804C300A1FE533248A
:10094000FCF888338604088605088606088607189A
:1009500018188C248D258E268F27802AE53324FEB7
:10096000F88833860408860518ED3395E0FEFF8C81
:10097000248D258E268F2720080CAC24AD257E00E3
:100980007F008E268F27300B43E5244525452645DD
:100990002760397408B52B0C758230C0031204E649
:1009A000D00380287410B52B23758230C003120445
:1009B000E6D00330000C758278C0031204E6D00341
:1009C000800A758258C0031204E6D003300825ACB3
:1009D00024AD25AE26E527FF30E717C3E49CFCE4F1
:1009E0009DFDE49EFEE49FFF8C248D258E268F279F
:1009F0008002C208752E00D20C8B00752800C00042
:100A0000120530D000200C0DE528C4FCE6FD4CF6A4
:100A10001888038002A628052EB20CE5244525453A
:100A200026452770D68803E52C7003752C01200518
:100A30001A200417E52E04FCC3952C500E75822055
:100A4000C0031204E6D003152C80E930080E75822D
:100A50002DC0031204E6D003152C8024E52E60205F
:100A600030060E75822BC0031204E6D003152C80CD
:100A70000F30070C758220C0031204E6D003152C3A
:100A800020041EAC2C152CC3E52E9C5027300504E9
:100A90007C3080027C208C82C0031204E6D003806C
:100AA000E2C3E52E952C5009E52CC3952EF52C803C
:100AB00003752C008B00AB2E152EEB6022B20C20A0
:100AC0000C0A08E6C4540FFB8B2880078603740FBA
:100AD0005BF528852882C000120500D00080D72051
:100AE000040302057AAB2C152CEB700302057A7512
:100AF00082201204E680EE8A821204E602057A85DC
:100B00002982852A832200000000000000000000E6
:00000001FF
