:100000000200B4C0F9A4B0999282F880908883C6A7
:10001000A1868E781E794A7AFADAFED9FAD8F622C3
:100020007E087F00A2E792FDC2FE23D2FEA2FDC0A1
:10003000E0EF33FFD0E0DEECEF22D2FEC2FFE85467
:100040003F120020E9120020D2FF22D2FEC2FF445C
:10005000801200207400120020D2FF22743212009D
:100060004BF8743312004BF9743412004BFA7435A8
:1000700012004BFB743612004BFC743712004BFD20
:1000800022D2FEC2FF74F2120020120020F81200E9
:1000900020F9120020FA120020FB120020FC1200AE
:1000A00020FDD2FF227831790812003A782D7908A4
:1000B00012003A2275817FE4F5E8F595900003126D
:1000C00000A512008120E82320E920E9C4540F9301
:1000D000F594E9540F93F593E8C4540F93F592E81F
:1000E000540F93F5911200130200C230E82320E967
:1000F00020EBC4540F93F594EB540F93F593EAC49B
:10010000540F93F592EA540F93F5911200130200E5
:10011000C220E82330E920EDC4540F93F594ED5448
:100120000F93F593ECC4540F93F592EC540F93F5A1
:10013000911200130200C2740012004BF87594FF74
:100140007593FFE8C4540F93F592E8540F93F5911B
:060150001200130200C2C0
:00000001FF
