:10000000020003758127120059E582600302005443
:10001000758200758300758400758500780079000D
:10002000E8496012E475860093A3758601F0A31871
:10003000B8FFED1980EA7586007582007583007C33
:10004000007D00EC4D600AE4F0A31CBCFFF51D80B0
:10005000F21201F612006980FE75CBFF75CAF775C2
:10006000C83475985275820022E4F5E8F59574C994
:10007000C0E07401C0E07480C0E012020C1581156C
:1000800081158175A18075A100AAA27B00ACA37D1A
:1000900000C002C003C004C00574D7C0E07401C032
:1000A000E07480C0E012020CE58124F9F58175A1AD
:1000B00001AAA27B00ACA37D00C002C003C004C0A3
:1000C0000574D7C0E07401C0E07480C0E012020C77
:1000D000E58124F9F58175A102AAA27B00ACA37D7C
:1000E00000C002C003C004C00574D7C0E07401C0E2
:1000F000E07480C0E012020CE58124F9F58175A15D
:1001000003AAA27B00ACA37D00C002C003C004C050
:100110000574D7C0E07401C0E07480C0E012020C26
:10012000E58124F9F58175A104AAA27B00ACA37D29
:1001300000C002C003C004C00574D7C0E07401C091
:10014000E07480C0E012020CE58124F9F58175A10C
:1001500005AAA27B00ACA37D00C002C003C004C0FE
:100160000574D7C0E07401C0E07480C0E012020CD6
:10017000E58124F9F58175A106AAA27B00ACA37DD7
:1001800000C002C003C004C00574D7C0E07401C041
:10019000E07480C0E012020CE58124F9F58175A1BC
:1001A00007AAA27B00ACA37D00C002C003C004C0AC
:1001B0000574E1C0E07401C0E07480C0E012020C7C
:1001C000E58124F9F581020086414443207465737A
:1001D000742E0D0A0D0A0025303178253032782032
:1001E0000025303178253032780D003C4E4F2046C6
:1001F0004C4F41543E002202084D858218858319D8
:1002000085F01A85091B9001F70202B6C0088581A6
:1002100008E50824FBF51BE50824FBF8861808868A
:100220001908861A9001F71202B6D00822AA827421
:100230003EC0E07402C0E0C00AC00B8A82220511F1
:10024000E4B51102051222AA8274302AFA24C6509B
:100250000A74072AFA3000034302208A8202022D20
:10026000E582FAC4540FF582C002120247D002742C
:100270000F5AF582020247AA0CAB0DAC0EAD0FAEC1
:1002800010751720EE2EFEED235401FF4206EA2AD8
:10029000FAEB33FBEC33FCED33FDC3EE9513400872
:1002A000EEC39513FE430201D517D98A0C8B0D8C32
:1002B0000E8D0F8E102285820A85830BE4F511F5D1
:1002C00012AA18AB19AC1A8A828B838CF0120862BE
:1002D000FD74012AF518E43BF5198C1AEDFA700348
:1002E000020846BA2502800302083EC204C205C2C3
:1002F00006C207C208C209C20AC20BC201C202C2B8
:10030000037513007514007515FFAB18AC19AD1A01
:100310008B828C838DF0120862FAA3AB82AC838B44
:10032000188C198D1ABA25078A8212022D80928A9A
:1003300006BE3000402E8A06EE24C6402774FFB564
:100340001513E51475F00AA4FEEA24D02EF51470F6
:10035000BFD20580BBE51575F00AA4FEEA24D02EB5
:10036000F51580ACBA2E0A74FFB515A4751500807A
:100370009F8A06BE6100400E8A06EE248540075320
:1003800002DFD2008002C200BA20028075BA2303C5
:10039000020411BA2A03020416BA2B02805FBA2D96
:1003A000028055BA4202805FBA430302045BBA443A
:1003B00003020596BA45030205B0BA46030205AC2E
:1003C000BA47030205B4BA4903020596BA4C028043
:1003D0003BBA4E030205B8BA4F0302059DBA50035B
:1003E00002052FBA530302047FBA55030205A2BACD
:1003F00058030205A70205E2D204020310D2060246
:100400000310D207020310D209020310D20A02031A
:1004100010D20B02031074FFB5152030090BE51B39
:1004200014F8881B8614020310E51B24FEF8881BB1
:100430008606088607188E1402031030090BE51B88
:1004400014F8881B8615020310E51B24FEF8881B90
:100450008606088607188E1502031030090AE51B68
:1004600014F8881B8602800FE51B24FEF8881B8683
:1004700003088604188B028A8212022D0205E7E522
:100480001B24FDF8881B86030886040886051818B7
:100490008B0C8C0D8D0E8B828C838DF0120897AB9C
:1004A00082AC838B1674FFB5150385161520041DC9
:1004B000C3E51695145016E514C39516F514AB1440
:1004C0001514EB600875822012022D80F1850C82D4
:1004D000850D83850EF0120862FBFA6029AB1515B5
:1004E00015C3E464808BF063F08095F050188A8225
:1004F00012022DAB0CAC0DAD0E0BBB00010C8B0C26
:100500008C0D8D0E80C72004030205E7C3E5169508
:100510001440030205E7E514C39516F514AB141552
:1005200014EB70030205E775822012022D80EEE5C0
:100530001B24FDF8881B8603088604088605181806
:100540008B0C8C0D8D0EE50EFB30E7047A43801387
:10055000EB546060047A50800AEB30E6047A4980FC
:10056000027A588A82C00212022D75823A12022D36
:1005700075823012022D75827812022DD002BA498E
:1005800002800BBA50028006850D82120260850C33
:10059000821202608051D20875130A804A751308CE
:1005A000804575130A8040751310803BD201803757
:1005B000D2028033D203802FE51B24FDF8881B86EE
:1005C0000308860408860518188B0C8C0D8D0E8B7D
:1005D000828C838DF0E51112087EA3E51212087E4D
:1005E00080058A8212022D20010620020330035A60
:1005F000E51B24FCF8881B8603088604088605088A
:1006000086061818188B0C8C0D8D0E8E0F750CEB42
:10061000750D01750E80850C1C850D1D850E1E74D3
:1006200001251CFEE4351DFFAB1E8E0C8F0D8B0EBD
:10063000851C82851D83851EF0120862FBFA7003FB
:100640000202C18A8212022D80CCE51370030202DD
:10065000C17B2730092BE51B14F8881BE6FC33957A
:10066000E0FDFEFF8C0C8D0D8E0E8F0F20085EAC12
:100670000C7D007E007F008C0C8D0D8E0E8F0F8008
:100680004C300A1FE51B24FCF8881B8604088605ED
:100690000886060886071818188C0C8D0D8E0E8F8C
:1006A0000F802AE51B24FEF8881B8604088605189F
:1006B000ED3395E0FEFF8C0C8D0D8E0E8F0F200814
:1006C0000CAC0CAD0D7E007F008E0E8F0F300B43F7
:1006D000E50C450D450E450F60397408B5130C75D2
:1006E0008230C00312022DD00380287410B513236A
:1006F000758230C00312022DD00330000C75827851
:10070000C00312022DD003800A758258C003120262
:100710002DD003300825AC0CAD0DAE0EE50FFF302B
:10072000E717C3E49CFCE49DFDE49EFEE49FFF8C80
:100730000C8D0D8E0E8F0F8002C208751600D20C24
:100740008B00751000C000120277D000200C0DE560
:1007500010C4FCE6FD4CF61888038002A6100516AE
:10076000B20CE50C450D450E450F70D68803E51417
:10077000700375140120051A200417E51604FCC344
:100780009514500E758220C00312022DD00315144B
:1007900080E930080E75822DC00312022DD003159A
:1007A000148024E516602030060E75822BC00312DB
:1007B000022DD0031514800F30070C758220C00362
:1007C00012022DD003151420041EAC141514C3E519
:1007D000169C50273005047C3080027C208C82C01F
:1007E0000312022DD00380E2C3E51695145009E5EB
:1007F00014C39516F51480037514008B00AB161501
:1008000016EB6022B20C200C0A08E6C4540FFB8BD6
:100810001080078603740F5BF510851082C00012EC
:100820000247D00080D72004030202C1AB14151484
:10083000EB70030202C175822012022D80EE8A82C3
:1008400012022D0202C185118285128322AA82BA68
:100850000A0810990280FB75990D10990280FB8A95
:10086000992220F71430F6148883A88220F507E631
:10087000A88375830022E280F7E49322E02220F728
:100880001030F6118883A88220F507F6A8837583B7
:100890000022F280F7F022AA82AB83ACF07D007ECA
:1008A000008A828B838CF0120862FFA3AA82AB833A
:1008B000EF60070DBD00EA0E80E78D828E83220077
:00000001FF
