:10000000020003758154120059E582600302005416
:10001000758200758300758400758500780079000D
:10002000E8496012E475860093A3758601F0A31871
:10003000B8FFED1980EA7586007582007583007C33
:10004000007D00EC4D600AE4F0A31CBCFFF51D80B0
:10005000F212070E12022D80FE75CBFF75CAF775DE
:10006000C83475985275820022AA8274015AF5EF3D
:1000700043EF0275EF0085EC3A85EB3985EA388568
:10008000E9378537828538838539F0E53A22AA82B7
:10009000853B3F853C40853D41853E428542EC8520
:1000A00041EB8540EA853FE974015AF5EF43EF04DF
:1000B00075EF0022AA82AB83ACF0FD8A438B448C9F
:1000C000458D468543E18544E28545E375ED11752F
:1000D000ED01740255EEFABA02F885E74685E64569
:1000E00085E54485E4438543828544838545F0E581
:1000F0004622AA82AB83ACF0FD8A4B8B4C8C4D8D93
:100100004E854BE1854CE2854DE385474B85484C58
:1001100085494D854A4E854EE7854DE6854CE585FA
:100120004BE475ED0143ED21740155EEFABA01027D
:1001300080F675ED0122AA82AB83ACF0FD8A067FC2
:1001400000780079008EE18B028C038D047D008A9B
:10015000E275E30075ED1175ED01740255EEFABA22
:1001600002F87403254FFAE43550FBAC518A828BB8
:10017000838CF0E5E71207617402254FFAE43550ED
:10018000FBAC518A828B838CF0E5E6120761740127
:10019000254FFAE43550FBAC518A828B838CF0E515
:1001A000E5120761AA4FAB50AC518A828B838CF069
:1001B000E5E4020761AA82AB838A047D008CE18BAF
:1001C000028AE275E30074032552FAE43553FBAC6E
:1001D000548A828B838CF012070FF5E77402255244
:1001E000FAE43553FBAC548A828B838CF012070FF0
:1001F000F5E674012552FAE43553FBAC548A828B40
:10020000838CF012070FF5E5AA52AB53AC548A82E7
:100210008B838CF012070FF5E475ED0143ED21742B
:100220000155EEFABA010280F675ED012275E8007B
:10023000E4F595F5EDF5EF74DCC0E07405C0E0740D
:1002400080C0E0120740158115811581758200126A
:100250000069AA82AB83ACF0FDC002C003C004C039
:100260000574F6C0E07405C0E07480C0E012074079
:10027000E58124F9F581758201120069AA82AB83B8
:10028000ACF0FDC002C003C004C0057411C0E0742E
:1002900006C0E07480C0E0120740E58124F9F581D2
:1002A000900000E4F5F01200B4AA82AB83ACF0FD3C
:1002B000C002C003C004C005742DC0E07406C0E0D5
:1002C0007480C0E0120740E58124F9F581900001B7
:1002D000E4F5F01200B4AA82AB83ACF0FDC002C01A
:1002E00003C004C0057445C0E07406C0E07480C05B
:1002F000E0120740E58124F9F581900002E4F5F071
:100300001200B4AA82AB83ACF0FDC002C003C004EB
:10031000C005745DC0E07406C0E07480C0E01207E0
:1003200040E58124F9F581758200120069AA82AB4B
:1003300083ACF0FDC002C003C004C00574F6C0E089
:100340007405C0E07480C0E0120740E58124F9F52F
:10035000817475C0E07406C0E07480C0E01207408C
:10036000158115811581753BFF753CFF753D1F7526
:100370003E0F75820112008E758200120069AA82FA
:10038000AB83ACF0FDEA540370EEF582120069AA6B
:1003900082AB83ACF0FDC002C003C004C00574F69C
:1003A000C0E07405C0E07480C0E0120740E581241D
:1003B000F9F581754F09755000755140900000E4C2
:1003C000F5F0120136AA097B00AC0A7D00850B0D01
:1003D000750E00AE0C7F00C002C003C004C005C093
:1003E0000DC00EC006C0077486C0E07406C0E0747D
:1003F00080C0E0120740E58124F5F581754F09754D
:100400005000755140900001E4F5F0120136AA0940
:100410007B00AC0A7D00850B0D750E00AE0C7F00D5
:10042000C002C003C004C005C00DC00EC006C00796
:1004300074A9C0E07406C0E07480C0E0120740E513
:100440008124F5F581754F09755000755140900074
:1004500002E4F5F0120136AA097B00AC0A7D0085A2
:100460000B0D750E00AE0C7F00C002C003C004C0AF
:1004700005C00DC00EC006C00774CCC0E07406C035
:10048000E07480C0E0120740E58124F5F58174EF47
:10049000C0E07406C0E07480C0E01207401581150A
:1004A000811581750C12750B34750A5675097875AE
:1004B00052097553007554409000001201B5750C37
:1004C00055750B55750A55750955755209755300C3
:1004D0007554409000011201B5750CAA750BAA75F0
:1004E0000AAA7509AA7552097553007554409000FF
:1004F000021201B57A247B011ABAFF011BEA4B7084
:10050000F7754F09F550755140900000E4F5F01271
:100510000136AA097B00AC0A7D00850B0D750E0023
:10052000AE0C7F00C002C003C004C005C00DC00EE9
:10053000C006C0077486C0E07406C0E07480C0E0E6
:10054000120740E58124F5F581754F097550007556
:100550005140900001E4F5F0120136AA097B00AC8D
:100560000A7D00850B0D750E00AE0C7F00C002C029
:1005700003C004C005C00DC00EC006C00774A9C0EA
:10058000E07406C0E07480C0E0120740E58124F505
:10059000F581754F09755000755140900002E4F5E2
:1005A000F0120136AA097B00AC0A7D00850B0D759F
:1005B0000E00AE0C7F00C002C003C004C005C00D19
:1005C000C00EC006C00774CCC0E07406C0E07480E2
:1005D000C0E0120740E58124F5F58122557365726C
:1005E00020466C617368204D656D6F72792074656B
:1005F00073742E0D0A00666C6173685F73746174A6
:1006000075735F7265673D30782530386C780D0AF8
:1006100000666C6173685F636F6E74726F6C5F729B
:1006200065673D30782530386C780D0A00666C615E
:1006300073685F646174612830293D3078253038F3
:100640006C780D0A00666C6173685F646174612880
:1006500031293D30782530386C780D0A00666C61A0
:1006600073685F646174612832293D3078253038C1
:100670006C780D0A000D0A45726173696E6720552A
:10068000464D310D0A00666C6173685F6461746188
:100690002830293D307825303278253032782530A1
:1006A0003278253032780D0A00666C6173685F64B9
:1006B0006174612831293D30782530327825303217
:1006C0007825303278253032780D0A00666C6173F7
:1006D000685F646174612832293D30782530327852
:1006E0002530327825303278253032780D0A000DE9
:1006F0000A57726974696E6720746F2055464D31D0
:100700000D0A003C4E4F20464C4F41543E002220E3
:10071000F71430F6148883A88220F507E6A88375BD
:10072000830022E280F7E49322E022020D9A858280
:100730003085833185F032850F3390072B02080313
:10074000C008858108E50824FBF533E50824FBF89B
:10075000863008863108863290072B120803D008AD
:100760002220F71030F6118883A88220F507F6A81A
:100770008375830022F280F7F022AA82748BC0E096
:100780007407C0E0C022C0238A82220529E4B5296B
:1007900002052A22AA8274302AFA24C6500A740753
:1007A0002AFA3000034302208A8202077AE582FA9D
:1007B000C4540FF582C002120794D002740F5AF588
:1007C00082020794AA24AB25AC26AD27AE28752F4C
:1007D00020EE2EFEED235401FF4206EA2AFAEB3307
:1007E000FBEC33FCED33FDC3EE952B4008EEC395D7
:1007F0002BFE430201D52FD98A248B258C268D27E9
:100800008E2822858222858323E4F529F52AAA30C1
:10081000AB31AC328A828B838CF012070FFD7401EE
:100820002AF530E43BF5318C32EDFA7003020D937A
:10083000BA25028003020D8BC204C205C206C2079C
:10084000C208C209C20AC20BC201C202C203752B8E
:1008500000752C00752DFFAB30AC31AD328B828C26
:10086000838DF012070FFAA3AB82AC838B308C31EF
:100870008D32BA25078A8212077A80928A06BE30A4
:1008800000402E8A06EE24C6402774FFB52D13E5DE
:100890002C75F00AA4FEEA24D02EF52C70BFD205E8
:1008A00080BBE52D75F00AA4FEEA24D02EF52D803C
:1008B000ACBA2E0A74FFB52DA4752D00809F8A0650
:1008C000BE6100400E8A06EE248540075302DFD247
:1008D000008002C200BA20028075BA230302095EBA
:1008E000BA2A03020963BA2B02805FBA2D0280552F
:1008F000BA4202805FBA43030209A8BA4403020A5B
:10090000E3BA4503020AFDBA4603020AF9BA4703ED
:10091000020B01BA4903020AE3BA4C02803BBA4E09
:1009200003020B05BA4F03020AEABA5003020A7C1B
:10093000BA53030209CCBA5503020AEFBA580302AC
:100940000AF4020B2FD20402085DD20602085DD21F
:100950000702085DD20902085DD20A02085DD20BC7
:1009600002085D74FFB52D2030090BE53314F888BB
:1009700033862C02085DE53324FEF88833860608AA
:100980008607188E2C02085D30090BE53314F888B1
:1009900033862D02085DE53324FEF8883386060889
:1009A0008607188E2D02085D30090AE53314F88891
:1009B000338602800FE53324FEF8883386030886E9
:1009C00004188B028A8212077A020B34E53324FD65
:1009D000F88833860308860408860518188B248C4B
:1009E000258D268B828C838DF0120DAFAB82AC836C
:1009F0008B2E74FFB52D03852E2D20041DC3E52EEF
:100A0000952C5016E52CC3952EF52CAB2C152CEB04
:100A1000600875822012077A80F1852482852583FB
:100A20008526F012070FFBFA6029AB2D152DC3E4C4
:100A300064808BF063F08095F050188A8212077AF8
:100A4000AB24AC25AD260BBB00010C8B248C258D73
:100A50002680C7200403020B34C3E52E952C4003E7
:100A6000020B34E52CC3952EF52CAB2C152CEB701A
:100A700003020B3475822012077A80EEE53324FDE1
:100A8000F88833860308860408860518188B248C9A
:100A9000258D26E526FB30E7047A438013EB54606E
:100AA00060047A50800AEB30E6047A4980027A5872
:100AB0008A82C00212077A75823A12077A758230EA
:100AC00012077A75827812077AD002BA4902800B2F
:100AD000BA500280068525821207AD85248212074E
:100AE000AD8051D208752B0A804A752B0880457558
:100AF0002B0A8040752B10803BD2018037D20280B8
:100B000033D203802FE53324FDF88833860308862B
:100B10000408860518188B248C258D268B828C83DF
:100B20008DF0E529120761A3E52A12076180058A85
:100B30008212077A20010620020330035AE533248B
:100B4000FCF888338603088604088605088606189C
:100B500018188B248C258D268E2775240375250760
:100B600075268085243485253585263674012534FF
:100B7000FEE43535FFAB368E248F258B26853482F7
:100B80008535838536F012070FFBFA700302080ED5
:100B90008A8212077A80CCE52B700302080E7B153F
:100BA00030092BE53314F88833E6FC3395E0FDFE7D
:100BB000FF8C248D258E268F2720085EAC247D0097
:100BC0007E007F008C248D258E268F27804C300A56
:100BD0001FE53324FCF8883386040886050886065A
:100BE0000886071818188C248D258E268F27802AB2
:100BF000E53324FEF88833860408860518ED33951E
:100C0000E0FEFF8C248D258E268F2720080CAC2437
:100C1000AD257E007F008E268F27300B43E52445CF
:100C2000254526452760397408B52B0C758230C0E0
:100C30000312077AD00380287410B52B23758230F5
:100C4000C00312077AD00330000C758278C00312FB
:100C5000077AD003800A758258C00312077AD0033E
:100C6000300825AC24AD25AE26E527FF30E717C3B5
:100C7000E49CFCE49DFDE49EFEE49FFF8C248D2516
:100C80008E268F278002C208752E00D20C8B00752D
:100C90002800C0001207C4D000200C0DE528C4FCB9
:100CA000E6FD4CF61888038002A628052EB20CE556
:100CB0002445254526452770D68803E52C70037505
:100CC0002C0120051A200417E52E04FCC3952C5096
:100CD0000E758220C00312077AD003152C80E930EC
:100CE000080E75822DC00312077AD003152C8024BC
:100CF000E52E602030060E75822BC00312077AD0D5
:100D000003152C800F30070C758220C00312077A60
:100D1000D003152C20041EAC2C152CC3E52E9C50A2
:100D2000273005047C3080027C208C82C0031207AF
:100D30007AD00380E2C3E52E952C5009E52CC395AB
:100D40002EF52C8003752C008B00AB2E152EEB603E
:100D500022B20C200C0A08E6C4540FFB8B28800733
:100D60008603740F5BF528852882C000120794D093
:100D70000080D720040302080EAB2C152CEB700367
:100D800002080E75822012077A80EE8A8212077A94
:100D900002080E852982852A8322AA82BA0A0810AF
:100DA000990280FB75990D10990280FB8A9922AAFD
:100DB00082AB83ACF07D007E008A828B838CF01244
:100DC000070FFFA3AA82AB83EF60070DBD00EA0EF9
:100DD00080E78D828E83220000000000000000006A
:00000001FF
