:0300000002016A90
:10000300C0F9A4B0999282F880908883C6A1868EA5
:10001300900003E530540F93F591E530C4540F93EA
:10002300F592E531540F93F593E531C4540F93F5ED
:1000330094E532540F93F58EE532C4540F93F58F44
:10004300227804C3E53033F530E53133F531E53259
:1000530033F532E53333F533E53433F534D8E4EFB0
:100063004530F530E4F53422785A794A7AFADAFEE3
:10007300D9FAD8F622439B54439C01539CAB539D1E
:10008300FE22C292C294C296C2A0A2A282A482A657
:1000930082B05002C32212006BA2A282A482A68263
:1000A300B05002C322C292D294D296D2A020A20709
:1000B3007F0130A2FDD32220A4077F0230A4FDD309
:1000C3002220A6077F0330A6FDD32220B0077F0A94
:1000D30030B0FDD322D292C294D296D2A020A207EE
:1000E3007F0430A2FDD32220A4077F0530A4FDD3D3
:1000F3002220A6077F0630A6FDD32220B0077F0B60
:1001030030B0FDD322D292D294C296D2A020A207BD
:100113007F0730A2FDD32220A4077F0830A4FDD39C
:100123002220A6077F0930A6FDD32220B0077F0C2B
:1001330030B0FDD322D292D294D296C2A020A2078D
:100143007F0E30A2FDD32220A4077F0030A4FDD36D
:100153002220A6077F0F30A6FDD32220B0077F0DF4
:1001630030B0FDD322C32275817FE4F5E8F595F520
:1001730030F531F532F533F53412001312007812ED
:0D018300008550FB1200441200130201829F
:00000001FF
